{
  "transactions": [
    {
      "hash": "0xc41f34fbec9072130c9fe0c9cb3e0ec20ff79dc912f9dbddffe15a0ad638be49",
      "transactionType": "CALL",
      "contractName": null,
      "contractAddress": "0x5833abf0ecfe61e85682f3720ba4d636084e0ec0",
      "function": "grantRole(bytes32,address)",
      "arguments": [
        "0x0000000000000000000000000000000000000000000000000000000000000000",
        "0xFc93b70fAa2045e19CEae43d1b645b2137c68A67"
      ],
      "transaction": {
        "from": "0xc899ece085ffb1382c85b0f2159f100c09d5eac0",
        "to": "0x5833abf0ecfe61e85682f3720ba4d636084e0ec0",
        "gas": "0x122c4",
        "value": "0x0",
        "input": "0x2f2ff15d0000000000000000000000000000000000000000000000000000000000000000000000000000000000000000fc93b70faa2045e19ceae43d1b645b2137c68a67",
        "nonce": "0x30",
        "chainId": "0x89"
      },
      "additionalContracts": [],
      "isFixedGasLimit": false
    },
    {
      "hash": "0x454a57ae53fdfef1068ce353a26bed50b4165c680d0ce66adb2d1b2d7cad46c0",
      "transactionType": "CALL",
      "contractName": null,
      "contractAddress": "0xeaef8dc4872a73815aea74a31ff7c83fdaa347d4",
      "function": "grantRole(bytes32,address)",
      "arguments": [
        "0x0000000000000000000000000000000000000000000000000000000000000000",
        "0xFc93b70fAa2045e19CEae43d1b645b2137c68A67"
      ],
      "transaction": {
        "from": "0xc899ece085ffb1382c85b0f2159f100c09d5eac0",
        "to": "0xeaef8dc4872a73815aea74a31ff7c83fdaa347d4",
        "gas": "0x11214",
        "value": "0x0",
        "input": "0x2f2ff15d0000000000000000000000000000000000000000000000000000000000000000000000000000000000000000fc93b70faa2045e19ceae43d1b645b2137c68a67",
        "nonce": "0x31",
        "chainId": "0x89"
      },
      "additionalContracts": [],
      "isFixedGasLimit": false
    },
    {
      "hash": "0xb0f7b4fef588f83ee2a77c2be5b9eb521b2af843e81e98de2f07f7865b070ea0",
      "transactionType": "CALL",
      "contractName": null,
      "contractAddress": "0x85fd80586649b730241ef9312653005119dc2fe1",
      "function": "grantRole(bytes32,address)",
      "arguments": [
        "0x0000000000000000000000000000000000000000000000000000000000000000",
        "0xFc93b70fAa2045e19CEae43d1b645b2137c68A67"
      ],
      "transaction": {
        "from": "0xc899ece085ffb1382c85b0f2159f100c09d5eac0",
        "to": "0x85fd80586649b730241ef9312653005119dc2fe1",
        "gas": "0x1124a",
        "value": "0x0",
        "input": "0x2f2ff15d0000000000000000000000000000000000000000000000000000000000000000000000000000000000000000fc93b70faa2045e19ceae43d1b645b2137c68a67",
        "nonce": "0x32",
        "chainId": "0x89"
      },
      "additionalContracts": [],
      "isFixedGasLimit": false
    },
    {
      "hash": "0xcc2afe70167c68d1e4fe697f56e6c93deaf89191103ff17c129252d69b50e8dd",
      "transactionType": "CALL",
      "contractName": null,
      "contractAddress": "0xfcb7d33f7d00040767faaca707f57c4e0bd5db19",
      "function": "grantRole(bytes32,address)",
      "arguments": [
        "0x0000000000000000000000000000000000000000000000000000000000000000",
        "0xFc93b70fAa2045e19CEae43d1b645b2137c68A67"
      ],
      "transaction": {
        "from": "0xc899ece085ffb1382c85b0f2159f100c09d5eac0",
        "to": "0xfcb7d33f7d00040767faaca707f57c4e0bd5db19",
        "gas": "0x1222c",
        "value": "0x0",
        "input": "0x2f2ff15d0000000000000000000000000000000000000000000000000000000000000000000000000000000000000000fc93b70faa2045e19ceae43d1b645b2137c68a67",
        "nonce": "0x33",
        "chainId": "0x89"
      },
      "additionalContracts": [],
      "isFixedGasLimit": false
    },
    {
      "hash": "0x98e86c9e347dd3c226f5b5e79871c3eb5017dfb09323a4cb6fc70e679f91d1e3",
      "transactionType": "CALL",
      "contractName": null,
      "contractAddress": "0x0ba2c622a2571c449fed251b165096f48adb8b0a",
      "function": "grantRole(bytes32,address)",
      "arguments": [
        "0x0000000000000000000000000000000000000000000000000000000000000000",
        "0xFc93b70fAa2045e19CEae43d1b645b2137c68A67"
      ],
      "transaction": {
        "from": "0xc899ece085ffb1382c85b0f2159f100c09d5eac0",
        "to": "0x0ba2c622a2571c449fed251b165096f48adb8b0a",
        "gas": "0x1136c",
        "value": "0x0",
        "input": "0x2f2ff15d0000000000000000000000000000000000000000000000000000000000000000000000000000000000000000fc93b70faa2045e19ceae43d1b645b2137c68a67",
        "nonce": "0x34",
        "chainId": "0x89"
      },
      "additionalContracts": [],
      "isFixedGasLimit": false
    },
    {
      "hash": "0x9d44167cbb046388b3be7f06e79c869a508974c29ddc6d4d6e77fc28b9563aee",
      "transactionType": "CALL",
      "contractName": null,
      "contractAddress": "0x8e0cec6a163ad43b1df8d050acf162f251d37165",
      "function": "grantRole(bytes32,address)",
      "arguments": [
        "0x0000000000000000000000000000000000000000000000000000000000000000",
        "0xFc93b70fAa2045e19CEae43d1b645b2137c68A67"
      ],
      "transaction": {
        "from": "0xc899ece085ffb1382c85b0f2159f100c09d5eac0",
        "to": "0x8e0cec6a163ad43b1df8d050acf162f251d37165",
        "gas": "0x112d2",
        "value": "0x0",
        "input": "0x2f2ff15d0000000000000000000000000000000000000000000000000000000000000000000000000000000000000000fc93b70faa2045e19ceae43d1b645b2137c68a67",
        "nonce": "0x35",
        "chainId": "0x89"
      },
      "additionalContracts": [],
      "isFixedGasLimit": false
    },
    {
      "hash": "0x95a7b263f5b3c110728bd4a53bcf53185606ad57202f9147067c8fcb03967dfc",
      "transactionType": "CALL",
      "contractName": null,
      "contractAddress": "0x180a4d91daead13cabe2cc60985a8808eab82ff1",
      "function": "grantRole(bytes32,address)",
      "arguments": [
        "0x0000000000000000000000000000000000000000000000000000000000000000",
        "0xFc93b70fAa2045e19CEae43d1b645b2137c68A67"
      ],
      "transaction": {
        "from": "0xc899ece085ffb1382c85b0f2159f100c09d5eac0",
        "to": "0x180a4d91daead13cabe2cc60985a8808eab82ff1",
        "gas": "0x11232",
        "value": "0x0",
        "input": "0x2f2ff15d0000000000000000000000000000000000000000000000000000000000000000000000000000000000000000fc93b70faa2045e19ceae43d1b645b2137c68a67",
        "nonce": "0x36",
        "chainId": "0x89"
      },
      "additionalContracts": [],
      "isFixedGasLimit": false
    },
    {
      "hash": "0x806660e078e48825497ce9ec736e8297798c7a10925aa9ac2ce92770654bec62",
      "transactionType": "CALL",
      "contractName": null,
      "contractAddress": "0x5833abf0ecfe61e85682f3720ba4d636084e0ec0",
      "function": "renounceRole(bytes32,address)",
      "arguments": [
        "0x0000000000000000000000000000000000000000000000000000000000000000",
        "0xc899eCe085ffB1382c85B0f2159F100c09D5EAc0"
      ],
      "transaction": {
        "from": "0xc899ece085ffb1382c85b0f2159f100c09d5eac0",
        "to": "0x5833abf0ecfe61e85682f3720ba4d636084e0ec0",
        "gas": "0x84db",
        "value": "0x0",
        "input": "0x36568abe0000000000000000000000000000000000000000000000000000000000000000000000000000000000000000c899ece085ffb1382c85b0f2159f100c09d5eac0",
        "nonce": "0x37",
        "chainId": "0x89"
      },
      "additionalContracts": [],
      "isFixedGasLimit": false
    },
    {
      "hash": "0x1947a1e12385352e8d81414ee828161f48ab8239bd74e9c23792a4abf081574d",
      "transactionType": "CALL",
      "contractName": null,
      "contractAddress": "0xeaef8dc4872a73815aea74a31ff7c83fdaa347d4",
      "function": "renounceRole(bytes32,address)",
      "arguments": [
        "0x0000000000000000000000000000000000000000000000000000000000000000",
        "0xc899eCe085ffB1382c85B0f2159F100c09D5EAc0"
      ],
      "transaction": {
        "from": "0xc899ece085ffb1382c85b0f2159f100c09d5eac0",
        "to": "0xeaef8dc4872a73815aea74a31ff7c83fdaa347d4",
        "gas": "0x8be7",
        "value": "0x0",
        "input": "0x36568abe0000000000000000000000000000000000000000000000000000000000000000000000000000000000000000c899ece085ffb1382c85b0f2159f100c09d5eac0",
        "nonce": "0x38",
        "chainId": "0x89"
      },
      "additionalContracts": [],
      "isFixedGasLimit": false
    },
    {
      "hash": "0xcbf44d0f062dfdb8e76f9356506288a78d5a81a23e4698ee1f3d9f19ce97ee57",
      "transactionType": "CALL",
      "contractName": null,
      "contractAddress": "0x85fd80586649b730241ef9312653005119dc2fe1",
      "function": "renounceRole(bytes32,address)",
      "arguments": [
        "0x0000000000000000000000000000000000000000000000000000000000000000",
        "0xc899eCe085ffB1382c85B0f2159F100c09D5EAc0"
      ],
      "transaction": {
        "from": "0xc899ece085ffb1382c85b0f2159f100c09d5eac0",
        "to": "0x85fd80586649b730241ef9312653005119dc2fe1",
        "gas": "0x8454",
        "value": "0x0",
        "input": "0x36568abe0000000000000000000000000000000000000000000000000000000000000000000000000000000000000000c899ece085ffb1382c85b0f2159f100c09d5eac0",
        "nonce": "0x39",
        "chainId": "0x89"
      },
      "additionalContracts": [],
      "isFixedGasLimit": false
    },
    {
      "hash": "0x2dd5dd490a75c3708278f59818c9691de51fdbaddcaf7c659a505e8cbd5796a6",
      "transactionType": "CALL",
      "contractName": null,
      "contractAddress": "0xfcb7d33f7d00040767faaca707f57c4e0bd5db19",
      "function": "renounceRole(bytes32,address)",
      "arguments": [
        "0x0000000000000000000000000000000000000000000000000000000000000000",
        "0xc899eCe085ffB1382c85B0f2159F100c09D5EAc0"
      ],
      "transaction": {
        "from": "0xc899ece085ffb1382c85b0f2159f100c09d5eac0",
        "to": "0xfcb7d33f7d00040767faaca707f57c4e0bd5db19",
        "gas": "0x8473",
        "value": "0x0",
        "input": "0x36568abe0000000000000000000000000000000000000000000000000000000000000000000000000000000000000000c899ece085ffb1382c85b0f2159f100c09d5eac0",
        "nonce": "0x3a",
        "chainId": "0x89"
      },
      "additionalContracts": [],
      "isFixedGasLimit": false
    },
    {
      "hash": "0xc801ac5c6de5ef904c6e47f688d9f0b78883b4a673b8a7dd2bdb4d019532e10b",
      "transactionType": "CALL",
      "contractName": null,
      "contractAddress": "0x0ba2c622a2571c449fed251b165096f48adb8b0a",
      "function": "renounceRole(bytes32,address)",
      "arguments": [
        "0x0000000000000000000000000000000000000000000000000000000000000000",
        "0xc899eCe085ffB1382c85B0f2159F100c09D5EAc0"
      ],
      "transaction": {
        "from": "0xc899ece085ffb1382c85b0f2159f100c09d5eac0",
        "to": "0x0ba2c622a2571c449fed251b165096f48adb8b0a",
        "gas": "0x8d51",
        "value": "0x0",
        "input": "0x36568abe0000000000000000000000000000000000000000000000000000000000000000000000000000000000000000c899ece085ffb1382c85b0f2159f100c09d5eac0",
        "nonce": "0x3b",
        "chainId": "0x89"
      },
      "additionalContracts": [],
      "isFixedGasLimit": false
    },
    {
      "hash": "0x048d40203d2feaf080d23d4b3ca55b49351cc455c15314ce997db6fc8d1d25a1",
      "transactionType": "CALL",
      "contractName": null,
      "contractAddress": "0x8e0cec6a163ad43b1df8d050acf162f251d37165",
      "function": "renounceRole(bytes32,address)",
      "arguments": [
        "0x0000000000000000000000000000000000000000000000000000000000000000",
        "0xc899eCe085ffB1382c85B0f2159F100c09D5EAc0"
      ],
      "transaction": {
        "from": "0xc899ece085ffb1382c85b0f2159f100c09d5eac0",
        "to": "0x8e0cec6a163ad43b1df8d050acf162f251d37165",
        "gas": "0x84fc",
        "value": "0x0",
        "input": "0x36568abe0000000000000000000000000000000000000000000000000000000000000000000000000000000000000000c899ece085ffb1382c85b0f2159f100c09d5eac0",
        "nonce": "0x3c",
        "chainId": "0x89"
      },
      "additionalContracts": [],
      "isFixedGasLimit": false
    },
    {
      "hash": "0x22a7b95ef04af75efc01fec9c28f7ce306b34695202b480035af44efd9ada8df",
      "transactionType": "CALL",
      "contractName": null,
      "contractAddress": "0x180a4d91daead13cabe2cc60985a8808eab82ff1",
      "function": "renounceRole(bytes32,address)",
      "arguments": [
        "0x0000000000000000000000000000000000000000000000000000000000000000",
        "0xc899eCe085ffB1382c85B0f2159F100c09D5EAc0"
      ],
      "transaction": {
        "from": "0xc899ece085ffb1382c85b0f2159f100c09d5eac0",
        "to": "0x180a4d91daead13cabe2cc60985a8808eab82ff1",
        "gas": "0x843d",
        "value": "0x0",
        "input": "0x36568abe0000000000000000000000000000000000000000000000000000000000000000000000000000000000000000c899ece085ffb1382c85b0f2159f100c09d5eac0",
        "nonce": "0x3d",
        "chainId": "0x89"
      },
      "additionalContracts": [],
      "isFixedGasLimit": false
    }
  ],
  "receipts": [
    {
      "status": "0x1",
      "cumulativeGasUsed": "0x23ea558",
      "logs": [
        {
          "address": "0x5833abf0ecfe61e85682f3720ba4d636084e0ec0",
          "topics": [
            "0x2f8788117e7eff1d82e926ec794901d17c78024a50270940304540a733656f0d",
            "0x0000000000000000000000000000000000000000000000000000000000000000",
            "0x000000000000000000000000fc93b70faa2045e19ceae43d1b645b2137c68a67",
            "0x000000000000000000000000c899ece085ffb1382c85b0f2159f100c09d5eac0"
          ],
          "data": "0x",
          "blockHash": "0x48feffcb73facd6cf0bf35309def23e6defcea784840ddb1735d84348d63b05b",
          "blockNumber": "0x51d2529",
          "blockTimestamp": "0x69e67a7e",
          "transactionHash": "0xc41f34fbec9072130c9fe0c9cb3e0ec20ff79dc912f9dbddffe15a0ad638be49",
          "transactionIndex": "0x9e",
          "logIndex": "0x805",
          "removed": false
        },
        {
          "address": "0x0000000000000000000000000000000000001010",
          "topics": [
            "0x4dfe1bbbcf077ddc3e01291eea2d5c70c2b422b415d95645b9adcfd678cb1d63",
            "0x0000000000000000000000000000000000000000000000000000000000001010",
            "0x000000000000000000000000c899ece085ffb1382c85b0f2159f100c09d5eac0",
            "0x0000000000000000000000007ee41d8a25641000661b1ef5e6ae8a00400466b0"
          ],
          "data": "0x000000000000000000000000000000000000000000000000000481d311d77d130000000000000000000000000000000000000000000000007c93065ef62a585b00000000000000000000000000000000000000000004ce1d88770cbc43990b9c0000000000000000000000000000000000000000000000007c8e848be452db4800000000000000000000000000000000000000000004ce1d887b8e8f557088af",
          "blockHash": "0x48feffcb73facd6cf0bf35309def23e6defcea784840ddb1735d84348d63b05b",
          "blockNumber": "0x51d2529",
          "blockTimestamp": "0x69e67a7e",
          "transactionHash": "0xc41f34fbec9072130c9fe0c9cb3e0ec20ff79dc912f9dbddffe15a0ad638be49",
          "transactionIndex": "0x9e",
          "logIndex": "0x806",
          "removed": false
        }
      ],
      "logsBloom": "0x00001004000000000000000000000000000000000000000000000000000000000000000000000000000000000000000000008000000000000000000000000000000000000000000000000000000000800000000000000000000100000000000000000000020004000000000000000c00000000000000000080000000000000000000000000000000020000000400000000000000010000000020000000010000200000000000000000002000000000000000000000000000001000000000004000000000000000000001000000000000000000400004000100100000000020000800000000000000000000000000000000000000000000000000000000100000",
      "type": "0x0",
      "transactionHash": "0xc41f34fbec9072130c9fe0c9cb3e0ec20ff79dc912f9dbddffe15a0ad638be49",
      "transactionIndex": "0x9e",
      "blockHash": "0x48feffcb73facd6cf0bf35309def23e6defcea784840ddb1735d84348d63b05b",
      "blockNumber": "0x51d2529",
      "gasUsed": "0xc6d1",
      "effectiveGasPrice": "0x1cc528fa1f",
      "from": "0xc899ece085ffb1382c85b0f2159f100c09d5eac0",
      "to": "0x5833abf0ecfe61e85682f3720ba4d636084e0ec0",
      "contractAddress": null
    },
    {
      "status": "0x1",
      "cumulativeGasUsed": "0x2396669",
      "logs": [
        {
          "address": "0xeaef8dc4872a73815aea74a31ff7c83fdaa347d4",
          "topics": [
            "0x2f8788117e7eff1d82e926ec794901d17c78024a50270940304540a733656f0d",
            "0x0000000000000000000000000000000000000000000000000000000000000000",
            "0x000000000000000000000000fc93b70faa2045e19ceae43d1b645b2137c68a67",
            "0x000000000000000000000000c899ece085ffb1382c85b0f2159f100c09d5eac0"
          ],
          "data": "0x",
          "blockHash": "0x016fcc1d5153bcac160a34ab50225949d3743279b9f8fd542542b650adf97193",
          "blockNumber": "0x51d252a",
          "blockTimestamp": "0x69e67a80",
          "transactionHash": "0x454a57ae53fdfef1068ce353a26bed50b4165c680d0ce66adb2d1b2d7cad46c0",
          "transactionIndex": "0x97",
          "logIndex": "0x74e",
          "removed": false
        },
        {
          "address": "0x0000000000000000000000000000000000001010",
          "topics": [
            "0x4dfe1bbbcf077ddc3e01291eea2d5c70c2b422b415d95645b9adcfd678cb1d63",
            "0x0000000000000000000000000000000000000000000000000000000000001010",
            "0x000000000000000000000000c899ece085ffb1382c85b0f2159f100c09d5eac0",
            "0x0000000000000000000000007ee41d8a25641000661b1ef5e6ae8a00400466b0"
          ],
          "data": "0x000000000000000000000000000000000000000000000000000486f60b1580530000000000000000000000000000000000000000000000007c7cae644e422b0c00000000000000000000000000000000000000000004ce1dc91ad98d3ffb9d4b0000000000000000000000000000000000000000000000007c78276e432caab900000000000000000000000000000000000000000004ce1dc91f60834b111d9e",
          "blockHash": "0x016fcc1d5153bcac160a34ab50225949d3743279b9f8fd542542b650adf97193",
          "blockNumber": "0x51d252a",
          "blockTimestamp": "0x69e67a80",
          "transactionHash": "0x454a57ae53fdfef1068ce353a26bed50b4165c680d0ce66adb2d1b2d7cad46c0",
          "transactionIndex": "0x97",
          "logIndex": "0x74f",
          "removed": false
        }
      ],
      "logsBloom": "0x00000004000000000000000000000000000000000000000000000000000000000000000000000000000000000000000000008000000000000000040000000000000000000000000000000000000000800000080000000000000100000000000000000000020004000000000000000c00000000000000000080000000000000000000000000000000020000000400000000000000010000000000000000010000200000000000000000002000000000000000000000000000001000000000004000000000000000000001000000000000000000400000000100100000000020000800000000000000000000000000000000001000000000000000000000100000",
      "type": "0x0",
      "transactionHash": "0x454a57ae53fdfef1068ce353a26bed50b4165c680d0ce66adb2d1b2d7cad46c0",
      "transactionIndex": "0x97",
      "blockHash": "0x016fcc1d5153bcac160a34ab50225949d3743279b9f8fd542542b650adf97193",
      "blockNumber": "0x51d252a",
      "gasUsed": "0xc66f",
      "effectiveGasPrice": "0x1cc528fa1f",
      "from": "0xc899ece085ffb1382c85b0f2159f100c09d5eac0",
      "to": "0xeaef8dc4872a73815aea74a31ff7c83fdaa347d4",
      "contractAddress": null
    },
    {
      "status": "0x1",
      "cumulativeGasUsed": "0x4419461",
      "logs": [
        {
          "address": "0x85fd80586649b730241ef9312653005119dc2fe1",
          "topics": [
            "0x2f8788117e7eff1d82e926ec794901d17c78024a50270940304540a733656f0d",
            "0x0000000000000000000000000000000000000000000000000000000000000000",
            "0x000000000000000000000000fc93b70faa2045e19ceae43d1b645b2137c68a67",
            "0x000000000000000000000000c899ece085ffb1382c85b0f2159f100c09d5eac0"
          ],
          "data": "0x",
          "blockHash": "0x79eeff7d305d7deb9c12822b8635b2f36ca71ec404c8607a4b2ef9c305998a0f",
          "blockNumber": "0x51d252c",
          "blockTimestamp": "0x69e67a84",
          "transactionHash": "0xb0f7b4fef588f83ee2a77c2be5b9eb521b2af843e81e98de2f07f7865b070ea0",
          "transactionIndex": "0xe9",
          "logIndex": "0xf39",
          "removed": false
        },
        {
          "address": "0x0000000000000000000000000000000000001010",
          "topics": [
            "0x4dfe1bbbcf077ddc3e01291eea2d5c70c2b422b415d95645b9adcfd678cb1d63",
            "0x0000000000000000000000000000000000000000000000000000000000001010",
            "0x000000000000000000000000c899ece085ffb1382c85b0f2159f100c09d5eac0",
            "0x0000000000000000000000007ee41d8a25641000661b1ef5e6ae8a00400466b0"
          ],
          "data": "0x00000000000000000000000000000000000000000000000000049359e3fae54d0000000000000000000000000000000000000000000000007c66616d2009bd9b00000000000000000000000000000000000000000004ce1e929499ad8a2c08e90000000000000000000000000000000000000000000000007c61ce133c0ed84e00000000000000000000000000000000000000000004ce1e92992d076e26ee36",
          "blockHash": "0x79eeff7d305d7deb9c12822b8635b2f36ca71ec404c8607a4b2ef9c305998a0f",
          "blockNumber": "0x51d252c",
          "blockTimestamp": "0x69e67a84",
          "transactionHash": "0xb0f7b4fef588f83ee2a77c2be5b9eb521b2af843e81e98de2f07f7865b070ea0",
          "transactionIndex": "0xe9",
          "logIndex": "0xf3a",
          "removed": false
        }
      ],
      "logsBloom": "0x00000004000000000000000000000000000000000000000000000000000000000000000000000000000000000000000000008000000000000000000000000000000000000000200000000000000000800000000000000000000100000000000000000000020004000000000000000c00000000000000000080000000000000000000000000000000020000000400000000000000010000000000000000010000200000000000000000002000000000000000000000000000001000000000004000000000400000000001000000000000000000400000000100100000000020000820000000000000000000000000000000000000000000000000000000100000",
      "type": "0x0",
      "transactionHash": "0xb0f7b4fef588f83ee2a77c2be5b9eb521b2af843e81e98de2f07f7865b070ea0",
      "transactionIndex": "0xe9",
      "blockHash": "0x79eeff7d305d7deb9c12822b8635b2f36ca71ec404c8607a4b2ef9c305998a0f",
      "blockNumber": "0x51d252c",
      "gasUsed": "0xc695",
      "effectiveGasPrice": "0x1cc528fa1f",
      "from": "0xc899ece085ffb1382c85b0f2159f100c09d5eac0",
      "to": "0x85fd80586649b730241ef9312653005119dc2fe1",
      "contractAddress": null
    },
    {
      "status": "0x1",
      "cumulativeGasUsed": "0x522f3d8",
      "logs": [
        {
          "address": "0xfcb7d33f7d00040767faaca707f57c4e0bd5db19",
          "topics": [
            "0x2f8788117e7eff1d82e926ec794901d17c78024a50270940304540a733656f0d",
            "0x0000000000000000000000000000000000000000000000000000000000000000",
            "0x000000000000000000000000fc93b70faa2045e19ceae43d1b645b2137c68a67",
            "0x000000000000000000000000c899ece085ffb1382c85b0f2159f100c09d5eac0"
          ],
          "data": "0x",
          "blockHash": "0xb640c7b608b3e67c59fb6b471aea5f362fad20a8873b415e7c44995d87d96c38",
          "blockNumber": "0x51d252e",
          "blockTimestamp": "0x69e67a88",
          "transactionHash": "0xcc2afe70167c68d1e4fe697f56e6c93deaf89191103ff17c129252d69b50e8dd",
          "transactionIndex": "0xf0",
          "logIndex": "0x127d",
          "removed": false
        },
        {
          "address": "0x0000000000000000000000000000000000001010",
          "topics": [
            "0x4dfe1bbbcf077ddc3e01291eea2d5c70c2b422b415d95645b9adcfd678cb1d63",
            "0x0000000000000000000000000000000000000000000000000000000000001010",
            "0x000000000000000000000000c899ece085ffb1382c85b0f2159f100c09d5eac0",
            "0x0000000000000000000000007ee41d8a25641000661b1ef5e6ae8a00400466b0"
          ],
          "data": "0x0000000000000000000000000000000000000000000000000004621d506db21e0000000000000000000000000000000000000000000000007c501030adbc2f9000000000000000000000000000000000000000000004ce1f742e6fa27cda254f0000000000000000000000000000000000000000000000007c4bae135d4e7d7200000000000000000000000000000000000000000004ce1f7432d1bfcd47d76d",
          "blockHash": "0xb640c7b608b3e67c59fb6b471aea5f362fad20a8873b415e7c44995d87d96c38",
          "blockNumber": "0x51d252e",
          "blockTimestamp": "0x69e67a88",
          "transactionHash": "0xcc2afe70167c68d1e4fe697f56e6c93deaf89191103ff17c129252d69b50e8dd",
          "transactionIndex": "0xf0",
          "logIndex": "0x127e",
          "removed": false
        }
      ],
      "logsBloom": "0x00000004000000000000000000000000000000000000000000000000000000000000000000000000000000000000000000008000000000000000000000000000000000000000000000000000000000800000000000000000000100000000000000000000020004000000000000000c00000000000000000080000000000000000000000000000000020000000400000000000000010004000000000000010000200000000000000000002000000000800800000000000000001000000000004000000000000000000001000000000000000000400000000100100000000020000800000000000000000000000000000000000000000000000000000000100000",
      "type": "0x0",
      "transactionHash": "0xcc2afe70167c68d1e4fe697f56e6c93deaf89191103ff17c129252d69b50e8dd",
      "transactionIndex": "0xf0",
      "blockHash": "0xb640c7b608b3e67c59fb6b471aea5f362fad20a8873b415e7c44995d87d96c38",
      "blockNumber": "0x51d252e",
      "gasUsed": "0xc669",
      "effectiveGasPrice": "0x1cc528fa1f",
      "from": "0xc899ece085ffb1382c85b0f2159f100c09d5eac0",
      "to": "0xfcb7d33f7d00040767faaca707f57c4e0bd5db19",
      "contractAddress": null
    },
    {
      "status": "0x1",
      "cumulativeGasUsed": "0x37bbd60",
      "logs": [
        {
          "address": "0x0ba2c622a2571c449fed251b165096f48adb8b0a",
          "topics": [
            "0x2f8788117e7eff1d82e926ec794901d17c78024a50270940304540a733656f0d",
            "0x0000000000000000000000000000000000000000000000000000000000000000",
            "0x000000000000000000000000fc93b70faa2045e19ceae43d1b645b2137c68a67",
            "0x000000000000000000000000c899ece085ffb1382c85b0f2159f100c09d5eac0"
          ],
          "data": "0x",
          "blockHash": "0xe2b842b9ae29af97c7a2f4aa1f6b205d3be601ed207334107b6288c5abb7d53f",
          "blockNumber": "0x51d253a",
          "blockTimestamp": "0x69e67aa0",
          "transactionHash": "0x98e86c9e347dd3c226f5b5e79871c3eb5017dfb09323a4cb6fc70e679f91d1e3",
          "transactionIndex": "0xc0",
          "logIndex": "0xd18",
          "removed": false
        },
        {
          "address": "0x0000000000000000000000000000000000001010",
          "topics": [
            "0x4dfe1bbbcf077ddc3e01291eea2d5c70c2b422b415d95645b9adcfd678cb1d63",
            "0x0000000000000000000000000000000000000000000000000000000000001010",
            "0x000000000000000000000000c899ece085ffb1382c85b0f2159f100c09d5eac0",
            "0x0000000000000000000000007ee41d8a25641000661b1ef5e6ae8a00400466b0"
          ],
          "data": "0x00000000000000000000000000000000000000000000000000045bfcb6f307830000000000000000000000000000000000000000000000007c39c3e61e799ed900000000000000000000000000000000000000000004ce25c55ed4979070188b0000000000000000000000000000000000000000000000007c3567e96786975600000000000000000000000000000000000000000004ce25c56330944763200e",
          "blockHash": "0xe2b842b9ae29af97c7a2f4aa1f6b205d3be601ed207334107b6288c5abb7d53f",
          "blockNumber": "0x51d253a",
          "blockTimestamp": "0x69e67aa0",
          "transactionHash": "0x98e86c9e347dd3c226f5b5e79871c3eb5017dfb09323a4cb6fc70e679f91d1e3",
          "transactionIndex": "0xc0",
          "logIndex": "0xd19",
          "removed": false
        }
      ],
      "logsBloom": "0x00000004000000000000000000000000000000000000000000000000000000000000000000000000000000000000000000008000000080000000000000000000000000000000000000000000000000800000000000000000000100000000000000000000020004001000000000000c00000000000000000080000000000000000000000000000000020000000400000000000000010000000000000000010000200000000000000000002000000000000000000000000000001000000000004000000000000000000001000000000000000000400000000100100000000020000800000000000000000000000000000000000000010000000000000000100000",
      "type": "0x0",
      "transactionHash": "0x98e86c9e347dd3c226f5b5e79871c3eb5017dfb09323a4cb6fc70e679f91d1e3",
      "transactionIndex": "0xc0",
      "blockHash": "0xe2b842b9ae29af97c7a2f4aa1f6b205d3be601ed207334107b6288c5abb7d53f",
      "blockNumber": "0x51d253a",
      "gasUsed": "0xc767",
      "effectiveGasPrice": "0x1cc528fa1f",
      "from": "0xc899ece085ffb1382c85b0f2159f100c09d5eac0",
      "to": "0x0ba2c622a2571c449fed251b165096f48adb8b0a",
      "contractAddress": null
    },
    {
      "status": "0x1",
      "cumulativeGasUsed": "0x1f3c94c",
      "logs": [
        {
          "address": "0x8e0cec6a163ad43b1df8d050acf162f251d37165",
          "topics": [
            "0x2f8788117e7eff1d82e926ec794901d17c78024a50270940304540a733656f0d",
            "0x0000000000000000000000000000000000000000000000000000000000000000",
            "0x000000000000000000000000fc93b70faa2045e19ceae43d1b645b2137c68a67",
            "0x000000000000000000000000c899ece085ffb1382c85b0f2159f100c09d5eac0"
          ],
          "data": "0x",
          "blockHash": "0xb47abe9878ae79b9a8978ce4535fba934566e551d204fefcdba5e8492e204a28",
          "blockNumber": "0x51d253d",
          "blockTimestamp": "0x69e67aa6",
          "transactionHash": "0x9d44167cbb046388b3be7f06e79c869a508974c29ddc6d4d6e77fc28b9563aee",
          "transactionIndex": "0x96",
          "logIndex": "0x5e8",
          "removed": false
        },
        {
          "address": "0x0000000000000000000000000000000000001010",
          "topics": [
            "0x4dfe1bbbcf077ddc3e01291eea2d5c70c2b422b415d95645b9adcfd678cb1d63",
            "0x0000000000000000000000000000000000000000000000000000000000001010",
            "0x000000000000000000000000c899ece085ffb1382c85b0f2159f100c09d5eac0",
            "0x0000000000000000000000007ee41d8a25641000661b1ef5e6ae8a00400466b0"
          ],
          "data": "0x00000000000000000000000000000000000000000000000000046ceb8c6c95480000000000000000000000000000000000000000000000007c235b0ff08ee36000000000000000000000000000000000000000000004ce2704b790e2085655cd0000000000000000000000000000000000000000000000007c1eee2464224e1800000000000000000000000000000000000000000004ce2704bbfdcd94c2eb15",
          "blockHash": "0xb47abe9878ae79b9a8978ce4535fba934566e551d204fefcdba5e8492e204a28",
          "blockNumber": "0x51d253d",
          "blockTimestamp": "0x69e67aa6",
          "transactionHash": "0x9d44167cbb046388b3be7f06e79c869a508974c29ddc6d4d6e77fc28b9563aee",
          "transactionIndex": "0x96",
          "logIndex": "0x5e9",
          "removed": false
        }
      ],
      "logsBloom": "0x00000004000000000000000000000000000000000000000000000000000000000000000000000000000000000000000000008000000000000000000000000000000000000000000000000000000000800000000000000000000100000000000010000000020004000000000000000c00000000000000000080000000000000000000000000000000020000000480000000000000010000000000000000010000200000000000000000002000000000000000000000000000001000000000004000000000000000000001000000000000000000400000000100100000000020000800000000000000000000000000000000000000008000000000000000100000",
      "type": "0x0",
      "transactionHash": "0x9d44167cbb046388b3be7f06e79c869a508974c29ddc6d4d6e77fc28b9563aee",
      "transactionIndex": "0x96",
      "blockHash": "0xb47abe9878ae79b9a8978ce4535fba934566e551d204fefcdba5e8492e204a28",
      "blockNumber": "0x51d253d",
      "gasUsed": "0xc6f8",
      "effectiveGasPrice": "0x1cc528fa1f",
      "from": "0xc899ece085ffb1382c85b0f2159f100c09d5eac0",
      "to": "0x8e0cec6a163ad43b1df8d050acf162f251d37165",
      "contractAddress": null
    },
    {
      "status": "0x1",
      "cumulativeGasUsed": "0x25b585f",
      "logs": [
        {
          "address": "0x180a4d91daead13cabe2cc60985a8808eab82ff1",
          "topics": [
            "0x2f8788117e7eff1d82e926ec794901d17c78024a50270940304540a733656f0d",
            "0x0000000000000000000000000000000000000000000000000000000000000000",
            "0x000000000000000000000000fc93b70faa2045e19ceae43d1b645b2137c68a67",
            "0x000000000000000000000000c899ece085ffb1382c85b0f2159f100c09d5eac0"
          ],
          "data": "0x",
          "blockHash": "0xe212bd2c9d46992564e7fd6dc6b7cac0f1036ab51db97e21611a2f6110b0654a",
          "blockNumber": "0x51d253f",
          "blockTimestamp": "0x69e67aaa",
          "transactionHash": "0x95a7b263f5b3c110728bd4a53bcf53185606ad57202f9147067c8fcb03967dfc",
          "transactionIndex": "0x97",
          "logIndex": "0x83b",
          "removed": false
        },
        {
          "address": "0x0000000000000000000000000000000000001010",
          "topics": [
            "0x4dfe1bbbcf077ddc3e01291eea2d5c70c2b422b415d95645b9adcfd678cb1d63",
            "0x0000000000000000000000000000000000000000000000000000000000001010",
            "0x000000000000000000000000c899ece085ffb1382c85b0f2159f100c09d5eac0",
            "0x0000000000000000000000007ee41d8a25641000661b1ef5e6ae8a00400466b0"
          ],
          "data": "0x00000000000000000000000000000000000000000000000000045af79d68edc40000000000000000000000000000000000000000000000007c0cfeb33f689b5800000000000000000000000000000000000000000004ce27ec74a33b12d5d5fc0000000000000000000000000000000000000000000000007c08a3bba1ffad9400000000000000000000000000000000000000000004ce27ec78fe32b03ec3c0",
          "blockHash": "0xe212bd2c9d46992564e7fd6dc6b7cac0f1036ab51db97e21611a2f6110b0654a",
          "blockNumber": "0x51d253f",
          "blockTimestamp": "0x69e67aaa",
          "transactionHash": "0x95a7b263f5b3c110728bd4a53bcf53185606ad57202f9147067c8fcb03967dfc",
          "transactionIndex": "0x97",
          "logIndex": "0x83c",
          "removed": false
        }
      ],
      "logsBloom": "0x00000004000001008000000000000000000000000000000000000000000000000000000000000000000000000000000000008000000000000000000000000000000000000000000000000000000000800020000000000000000100000000000000000000020004000000000000000c00000000000000000080000000000000000000000000000000020000000400000000000000010000000000000000010000200000000000000000002000000000000000000000000000001000000000004000000000000000000001000000000000000000400000000100100000000020000800000000000000000000000000000000000000000000000000000000100000",
      "type": "0x0",
      "transactionHash": "0x95a7b263f5b3c110728bd4a53bcf53185606ad57202f9147067c8fcb03967dfc",
      "transactionIndex": "0x97",
      "blockHash": "0xe212bd2c9d46992564e7fd6dc6b7cac0f1036ab51db97e21611a2f6110b0654a",
      "blockNumber": "0x51d253f",
      "gasUsed": "0xc684",
      "effectiveGasPrice": "0x1cc528fa1f",
      "from": "0xc899ece085ffb1382c85b0f2159f100c09d5eac0",
      "to": "0x180a4d91daead13cabe2cc60985a8808eab82ff1",
      "contractAddress": null
    },
    {
      "status": "0x1",
      "cumulativeGasUsed": "0x3b7c672",
      "logs": [
        {
          "address": "0x5833abf0ecfe61e85682f3720ba4d636084e0ec0",
          "topics": [
            "0xf6391f5c32d9c69d2a47ea670b442974b53935d1edc7fd64eb21e047a839171b",
            "0x0000000000000000000000000000000000000000000000000000000000000000",
            "0x000000000000000000000000c899ece085ffb1382c85b0f2159f100c09d5eac0",
            "0x000000000000000000000000c899ece085ffb1382c85b0f2159f100c09d5eac0"
          ],
          "data": "0x",
          "blockHash": "0xeb0f5b5ea321c39df5dc243eb0f11de2e0a5d0cd57700c8169f3106b96672af7",
          "blockNumber": "0x51d2541",
          "blockTimestamp": "0x69e67aae",
          "transactionHash": "0x806660e078e48825497ce9ec736e8297798c7a10925aa9ac2ce92770654bec62",
          "transactionIndex": "0xad",
          "logIndex": "0xe47",
          "removed": false
        },
        {
          "address": "0x0000000000000000000000000000000000001010",
          "topics": [
            "0x4dfe1bbbcf077ddc3e01291eea2d5c70c2b422b415d95645b9adcfd678cb1d63",
            "0x0000000000000000000000000000000000000000000000000000000000001010",
            "0x000000000000000000000000c899ece085ffb1382c85b0f2159f100c09d5eac0",
            "0x0000000000000000000000007ee41d8a25641000661b1ef5e6ae8a00400466b0"
          ],
          "data": "0x00000000000000000000000000000000000000000000000000021a3bc7dee3600000000000000000000000000000000000000000000000007bf6af5fe4d3a95c00000000000000000000000000000000000000000004ce28d201e8c6b602cca80000000000000000000000000000000000000000000000007bf495241cf4c5fc00000000000000000000000000000000000000000004ce28d20403027de1b008",
          "blockHash": "0xeb0f5b5ea321c39df5dc243eb0f11de2e0a5d0cd57700c8169f3106b96672af7",
          "blockNumber": "0x51d2541",
          "blockTimestamp": "0x69e67aae",
          "transactionHash": "0x806660e078e48825497ce9ec736e8297798c7a10925aa9ac2ce92770654bec62",
          "transactionIndex": "0xad",
          "logIndex": "0xe48",
          "removed": false
        }
      ],
      "logsBloom": "0x00001000000000000000000000000000000000000000000000000000000000000000000000000000000000000000000000208000000000000000000000000000000000000000000000000000000000800000000000000000000100000000000040000000020000000000000000000800000000000000000080000000000000000000000040000000020000000400000000000000010000000020000000010000200000000000000000000000000000000000000000000000000000000000004000000000000000000001000000000000000000400004000000100000000020000800000000000000000000000000000000000000000000000000000000100000",
      "type": "0x0",
      "transactionHash": "0x806660e078e48825497ce9ec736e8297798c7a10925aa9ac2ce92770654bec62",
      "transactionIndex": "0xad",
      "blockHash": "0xeb0f5b5ea321c39df5dc243eb0f11de2e0a5d0cd57700c8169f3106b96672af7",
      "blockNumber": "0x51d2541",
      "gasUsed": "0x6030",
      "effectiveGasPrice": "0x1cc528fa1f",
      "from": "0xc899ece085ffb1382c85b0f2159f100c09d5eac0",
      "to": "0x5833abf0ecfe61e85682f3720ba4d636084e0ec0",
      "contractAddress": null
    },
    {
      "status": "0x1",
      "cumulativeGasUsed": "0x316d0e4",
      "logs": [
        {
          "address": "0xeaef8dc4872a73815aea74a31ff7c83fdaa347d4",
          "topics": [
            "0xf6391f5c32d9c69d2a47ea670b442974b53935d1edc7fd64eb21e047a839171b",
            "0x0000000000000000000000000000000000000000000000000000000000000000",
            "0x000000000000000000000000c899ece085ffb1382c85b0f2159f100c09d5eac0",
            "0x000000000000000000000000c899ece085ffb1382c85b0f2159f100c09d5eac0"
          ],
          "data": "0x",
          "blockHash": "0xf565a7b473d0fbc876282311e51e3c1966bf6f9ea0ab6338acda40e949fa4da3",
          "blockNumber": "0x51d2544",
          "blockTimestamp": "0x69e67ab4",
          "transactionHash": "0x1947a1e12385352e8d81414ee828161f48ab8239bd74e9c23792a4abf081574d",
          "transactionIndex": "0xcd",
          "logIndex": "0xaa5",
          "removed": false
        },
        {
          "address": "0x0000000000000000000000000000000000001010",
          "topics": [
            "0x4dfe1bbbcf077ddc3e01291eea2d5c70c2b422b415d95645b9adcfd678cb1d63",
            "0x0000000000000000000000000000000000000000000000000000000000001010",
            "0x000000000000000000000000c899ece085ffb1382c85b0f2159f100c09d5eac0",
            "0x0000000000000000000000007ee41d8a25641000661b1ef5e6ae8a00400466b0"
          ],
          "data": "0x0000000000000000000000000000000000000000000000000002178799e488eb0000000000000000000000000000000000000000000000007bebe00b8f59238c00000000000000000000000000000000000000000004ce2a38739e67a5462c640000000000000000000000000000000000000000000000007be9c883f5749aa100000000000000000000000000000000000000000004ce2a3875b5ef3f2ab54f",
          "blockHash": "0xf565a7b473d0fbc876282311e51e3c1966bf6f9ea0ab6338acda40e949fa4da3",
          "blockNumber": "0x51d2544",
          "blockTimestamp": "0x69e67ab4",
          "transactionHash": "0x1947a1e12385352e8d81414ee828161f48ab8239bd74e9c23792a4abf081574d",
          "transactionIndex": "0xcd",
          "logIndex": "0xaa6",
          "removed": false
        }
      ],
      "logsBloom": "0x00000000000000000000000000000000000000000000000000000000000000000000000000000000000000000000000000208000000000000000040000000000000000000000000000000000000000800000080000000000000100000000000040000000020000000000000000000800000000000000000080000000000000000000000040000000020000000400000000000000010000000000000000010000200000000000000000000000000000000000000000000000000000000000004000000000000000000001000000000000000000400000000000100000000020000800000000000000000000000000000000001000000000000000000000100000",
      "type": "0x0",
      "transactionHash": "0x1947a1e12385352e8d81414ee828161f48ab8239bd74e9c23792a4abf081574d",
      "transactionIndex": "0xcd",
      "blockHash": "0xf565a7b473d0fbc876282311e51e3c1966bf6f9ea0ab6338acda40e949fa4da3",
      "blockNumber": "0x51d2544",
      "gasUsed": "0x5fa9",
      "effectiveGasPrice": "0x1cc528fa1f",
      "from": "0xc899ece085ffb1382c85b0f2159f100c09d5eac0",
      "to": "0xeaef8dc4872a73815aea74a31ff7c83fdaa347d4",
      "contractAddress": null
    },
    {
      "status": "0x1",
      "cumulativeGasUsed": "0x2382768",
      "logs": [
        {
          "address": "0x85fd80586649b730241ef9312653005119dc2fe1",
          "topics": [
            "0xf6391f5c32d9c69d2a47ea670b442974b53935d1edc7fd64eb21e047a839171b",
            "0x0000000000000000000000000000000000000000000000000000000000000000",
            "0x000000000000000000000000c899ece085ffb1382c85b0f2159f100c09d5eac0",
            "0x000000000000000000000000c899ece085ffb1382c85b0f2159f100c09d5eac0"
          ],
          "data": "0x",
          "blockHash": "0x78b9bde15e39e79d0576ba8ad5c914dbe572c33319fd3d11ce3539331001befb",
          "blockNumber": "0x51d2558",
          "blockTimestamp": "0x69e67adc",
          "transactionHash": "0xcbf44d0f062dfdb8e76f9356506288a78d5a81a23e4698ee1f3d9f19ce97ee57",
          "transactionIndex": "0x8b",
          "logIndex": "0x7c0",
          "removed": false
        },
        {
          "address": "0x0000000000000000000000000000000000001010",
          "topics": [
            "0x4dfe1bbbcf077ddc3e01291eea2d5c70c2b422b415d95645b9adcfd678cb1d63",
            "0x0000000000000000000000000000000000000000000000000000000000001010",
            "0x000000000000000000000000c899ece085ffb1382c85b0f2159f100c09d5eac0",
            "0x0000000000000000000000007ee41d8a25641000661b1ef5e6ae8a00400466b0"
          ],
          "data": "0x0000000000000000000000000000000000000000000000000002191a0a798dfc00000000000000000000000000000000000000000000000332078be497d8129700000000000000000000000000000000000000000004ce31c42a7d91c859be9e000000000000000000000000000000000000000000000003320572ca8d5e849b00000000000000000000000000000000000000000004ce31c42c96abd2d34c9a",
          "blockHash": "0x78b9bde15e39e79d0576ba8ad5c914dbe572c33319fd3d11ce3539331001befb",
          "blockNumber": "0x51d2558",
          "blockTimestamp": "0x69e67adc",
          "transactionHash": "0xcbf44d0f062dfdb8e76f9356506288a78d5a81a23e4698ee1f3d9f19ce97ee57",
          "transactionIndex": "0x8b",
          "logIndex": "0x7c1",
          "removed": false
        }
      ],
      "logsBloom": "0x00000000000000000000000000000000000000000000000000000000000000000000000000000000000000000000000000208000000000000000000000000000000000000000200000000000000000800000000000000000000100000000000040000000020000000000000000000800000000000000000080000000000000000000000040000000020000000400000000000000010000000000000000010000200000000000000000000000000000000000000000000000000000000000004000000000400000000001000000000000000000400000000000100000000020000820000000000000000000000000000000000000000000000000000000100000",
      "type": "0x0",
      "transactionHash": "0xcbf44d0f062dfdb8e76f9356506288a78d5a81a23e4698ee1f3d9f19ce97ee57",
      "transactionIndex": "0x8b",
      "blockHash": "0x78b9bde15e39e79d0576ba8ad5c914dbe572c33319fd3d11ce3539331001befb",
      "blockNumber": "0x51d2558",
      "gasUsed": "0x5fcf",
      "effectiveGasPrice": "0x1cc528fa1f",
      "from": "0xc899ece085ffb1382c85b0f2159f100c09d5eac0",
      "to": "0x85fd80586649b730241ef9312653005119dc2fe1",
      "contractAddress": null
    },
    {
      "status": "0x1",
      "cumulativeGasUsed": "0x3657162",
      "logs": [
        {
          "address": "0xfcb7d33f7d00040767faaca707f57c4e0bd5db19",
          "topics": [
            "0xf6391f5c32d9c69d2a47ea670b442974b53935d1edc7fd64eb21e047a839171b",
            "0x0000000000000000000000000000000000000000000000000000000000000000",
            "0x000000000000000000000000c899ece085ffb1382c85b0f2159f100c09d5eac0",
            "0x000000000000000000000000c899ece085ffb1382c85b0f2159f100c09d5eac0"
          ],
          "data": "0x",
          "blockHash": "0xb671d1bf101083f9b6ebc3a4a8525f301a16ae3172b7305f2a2b717a40eb29b0",
          "blockNumber": "0x51d2559",
          "blockTimestamp": "0x69e67ade",
          "transactionHash": "0x2dd5dd490a75c3708278f59818c9691de51fdbaddcaf7c659a505e8cbd5796a6",
          "transactionIndex": "0xa7",
          "logIndex": "0xbb5",
          "removed": false
        },
        {
          "address": "0x0000000000000000000000000000000000001010",
          "topics": [
            "0x4dfe1bbbcf077ddc3e01291eea2d5c70c2b422b415d95645b9adcfd678cb1d63",
            "0x0000000000000000000000000000000000000000000000000000000000001010",
            "0x000000000000000000000000c899ece085ffb1382c85b0f2159f100c09d5eac0",
            "0x0000000000000000000000007ee41d8a25641000661b1ef5e6ae8a00400466b0"
          ],
          "data": "0x00000000000000000000000000000000000000000000000000021d858693073a00000000000000000000000000000000000000000000000331fcc776f6e4528600000000000000000000000000000000000000000004ce3233b05ce75e8bbab500000000000000000000000000000000000000000000000331faa9f170514b4c00000000000000000000000000000000000000000004ce3233b27a6ce51ec1ef",
          "blockHash": "0xb671d1bf101083f9b6ebc3a4a8525f301a16ae3172b7305f2a2b717a40eb29b0",
          "blockNumber": "0x51d2559",
          "blockTimestamp": "0x69e67ade",
          "transactionHash": "0x2dd5dd490a75c3708278f59818c9691de51fdbaddcaf7c659a505e8cbd5796a6",
          "transactionIndex": "0xa7",
          "logIndex": "0xbb6",
          "removed": false
        }
      ],
      "logsBloom": "0x00000000000000000000000000000000000000000000000000000000000000000000000000000000000000000000000000208000000000000000000000000000000000000000000000000000000000800000000000000000000100000000000040000000020000000000000000000800000000000000000080000000000000000000000040000000020000000400000000000000010004000000000000010000200000000000000000000000000000800800000000000000000000000000004000000000000000000001000000000000000000400000000000100000000020000800000000000000000000000000000000000000000000000000000000100000",
      "type": "0x0",
      "transactionHash": "0x2dd5dd490a75c3708278f59818c9691de51fdbaddcaf7c659a505e8cbd5796a6",
      "transactionIndex": "0xa7",
      "blockHash": "0xb671d1bf101083f9b6ebc3a4a8525f301a16ae3172b7305f2a2b717a40eb29b0",
      "blockNumber": "0x51d2559",
      "gasUsed": "0x5fe5",
      "effectiveGasPrice": "0x1cc528fa1f",
      "from": "0xc899ece085ffb1382c85b0f2159f100c09d5eac0",
      "to": "0xfcb7d33f7d00040767faaca707f57c4e0bd5db19",
      "contractAddress": null
    },
    {
      "status": "0x1",
      "cumulativeGasUsed": "0x22e44ba",
      "logs": [
        {
          "address": "0x0ba2c622a2571c449fed251b165096f48adb8b0a",
          "topics": [
            "0xf6391f5c32d9c69d2a47ea670b442974b53935d1edc7fd64eb21e047a839171b",
            "0x0000000000000000000000000000000000000000000000000000000000000000",
            "0x000000000000000000000000c899ece085ffb1382c85b0f2159f100c09d5eac0",
            "0x000000000000000000000000c899ece085ffb1382c85b0f2159f100c09d5eac0"
          ],
          "data": "0x",
          "blockHash": "0x3f44e719bb26c23436650571522699c73b346af9a1ea5866f986abcff73912fc",
          "blockNumber": "0x51d255c",
          "blockTimestamp": "0x69e67ae4",
          "transactionHash": "0xc801ac5c6de5ef904c6e47f688d9f0b78883b4a673b8a7dd2bdb4d019532e10b",
          "transactionIndex": "0x9e",
          "logIndex": "0x6c7",
          "removed": false
        },
        {
          "address": "0x0000000000000000000000000000000000001010",
          "topics": [
            "0x4dfe1bbbcf077ddc3e01291eea2d5c70c2b422b415d95645b9adcfd678cb1d63",
            "0x0000000000000000000000000000000000000000000000000000000000001010",
            "0x000000000000000000000000c899ece085ffb1382c85b0f2159f100c09d5eac0",
            "0x0000000000000000000000007ee41d8a25641000661b1ef5e6ae8a00400466b0"
          ],
          "data": "0x000000000000000000000000000000000000000000000000000221c0cb5879f700000000000000000000000000000000000000000000000331f20090646b13cb00000000000000000000000000000000000000000004ce331ed7e13cca8c2ca100000000000000000000000000000000000000000000000331efdecf991299d400000000000000000000000000000000000000000004ce331eda02fd95e4a698",
          "blockHash": "0x3f44e719bb26c23436650571522699c73b346af9a1ea5866f986abcff73912fc",
          "blockNumber": "0x51d255c",
          "blockTimestamp": "0x69e67ae4",
          "transactionHash": "0xc801ac5c6de5ef904c6e47f688d9f0b78883b4a673b8a7dd2bdb4d019532e10b",
          "transactionIndex": "0x9e",
          "logIndex": "0x6c8",
          "removed": false
        }
      ],
      "logsBloom": "0x00000000000000000000000000000000000000000000000000000000000000000000000000000000000000000000000000208000000080000000000000000000000000000000000000000000000000800000000000000000000100000000000040000000020000001000000000000800000000000000000080000000000000000000000040000000020000000400000000000000010000000000000000010000200000000000000000000000000000000000000000000000000000000000004000000000000000000001000000000000000000400000000000100000000020000800000000000000000000000000000000000000010000000000000000100000",
      "type": "0x0",
      "transactionHash": "0xc801ac5c6de5ef904c6e47f688d9f0b78883b4a673b8a7dd2bdb4d019532e10b",
      "transactionIndex": "0x9e",
      "blockHash": "0x3f44e719bb26c23436650571522699c73b346af9a1ea5866f986abcff73912fc",
      "blockNumber": "0x51d255c",
      "gasUsed": "0x60a1",
      "effectiveGasPrice": "0x1cc528fa1f",
      "from": "0xc899ece085ffb1382c85b0f2159f100c09d5eac0",
      "to": "0x0ba2c622a2571c449fed251b165096f48adb8b0a",
      "contractAddress": null
    },
    {
      "status": "0x1",
      "cumulativeGasUsed": "0x36ff710",
      "logs": [
        {
          "address": "0x8e0cec6a163ad43b1df8d050acf162f251d37165",
          "topics": [
            "0xf6391f5c32d9c69d2a47ea670b442974b53935d1edc7fd64eb21e047a839171b",
            "0x0000000000000000000000000000000000000000000000000000000000000000",
            "0x000000000000000000000000c899ece085ffb1382c85b0f2159f100c09d5eac0",
            "0x000000000000000000000000c899ece085ffb1382c85b0f2159f100c09d5eac0"
          ],
          "data": "0x",
          "blockHash": "0x13627303c3fca7a2900c87527fa89495213e2b10ac2c84551505fec5bba011ff",
          "blockNumber": "0x51d255d",
          "blockTimestamp": "0x69e67ae6",
          "transactionHash": "0x048d40203d2feaf080d23d4b3ca55b49351cc455c15314ce997db6fc8d1d25a1",
          "transactionIndex": "0xb8",
          "logIndex": "0xc49",
          "removed": false
        },
        {
          "address": "0x0000000000000000000000000000000000001010",
          "topics": [
            "0x4dfe1bbbcf077ddc3e01291eea2d5c70c2b422b415d95645b9adcfd678cb1d63",
            "0x0000000000000000000000000000000000000000000000000000000000001010",
            "0x000000000000000000000000c899ece085ffb1382c85b0f2159f100c09d5eac0",
            "0x0000000000000000000000007ee41d8a25641000661b1ef5e6ae8a00400466b0"
          ],
          "data": "0x00000000000000000000000000000000000000000000000000022445dfd6132800000000000000000000000000000000000000000000000331e7248907da264c00000000000000000000000000000000000000000004ce338e06b3e7bf45a66b00000000000000000000000000000000000000000000000331e500432804132400000000000000000000000000000000000000000004ce338e08d82d9f1bb993",
          "blockHash": "0x13627303c3fca7a2900c87527fa89495213e2b10ac2c84551505fec5bba011ff",
          "blockNumber": "0x51d255d",
          "blockTimestamp": "0x69e67ae6",
          "transactionHash": "0x048d40203d2feaf080d23d4b3ca55b49351cc455c15314ce997db6fc8d1d25a1",
          "transactionIndex": "0xb8",
          "logIndex": "0xc4a",
          "removed": false
        }
      ],
      "logsBloom": "0x00000000000000000000000000000000000000000000000000000000000000000000000000000000000000000000000000208000000000000000000000000000000000000000000000000000000000800000000000000000000100000000000050000000020000000000000000000800000000000000000080000000000000000000000040000000020000000480000000000000010000000000000000010000200000000000000000000000000000000000000000000000000000000000004000000000000000000001000000000000000000400000000000100000000020000800000000000000000000000000000000000000008000000000000000100000",
      "type": "0x0",
      "transactionHash": "0x048d40203d2feaf080d23d4b3ca55b49351cc455c15314ce997db6fc8d1d25a1",
      "transactionIndex": "0xb8",
      "blockHash": "0x13627303c3fca7a2900c87527fa89495213e2b10ac2c84551505fec5bba011ff",
      "blockNumber": "0x51d255d",
      "gasUsed": "0x6048",
      "effectiveGasPrice": "0x1cc528fa1f",
      "from": "0xc899ece085ffb1382c85b0f2159f100c09d5eac0",
      "to": "0x8e0cec6a163ad43b1df8d050acf162f251d37165",
      "contractAddress": null
    },
    {
      "status": "0x1",
      "cumulativeGasUsed": "0x3317f5e",
      "logs": [
        {
          "address": "0x180a4d91daead13cabe2cc60985a8808eab82ff1",
          "topics": [
            "0xf6391f5c32d9c69d2a47ea670b442974b53935d1edc7fd64eb21e047a839171b",
            "0x0000000000000000000000000000000000000000000000000000000000000000",
            "0x000000000000000000000000c899ece085ffb1382c85b0f2159f100c09d5eac0",
            "0x000000000000000000000000c899ece085ffb1382c85b0f2159f100c09d5eac0"
          ],
          "data": "0x",
          "blockHash": "0x4810c127871f2ad6a73cde496448cf7cdb936d05a125c4606bd8bf8cb0c0c4d1",
          "blockNumber": "0x51d2590",
          "blockTimestamp": "0x69e67b4c",
          "transactionHash": "0x22a7b95ef04af75efc01fec9c28f7ce306b34695202b480035af44efd9ada8df",
          "transactionIndex": "0xb0",
          "logIndex": "0x9ab",
          "removed": false
        },
        {
          "address": "0x0000000000000000000000000000000000001010",
          "topics": [
            "0x4dfe1bbbcf077ddc3e01291eea2d5c70c2b422b415d95645b9adcfd678cb1d63",
            "0x0000000000000000000000000000000000000000000000000000000000001010",
            "0x000000000000000000000000c899ece085ffb1382c85b0f2159f100c09d5eac0",
            "0x0000000000000000000000007ee41d8a25641000661b1ef5e6ae8a00400466b0"
          ],
          "data": "0x00000000000000000000000000000000000000000000000000021862f573b5a000000000000000000000000000000000000000000000000331dc528236882d9400000000000000000000000000000000000000000004ce70e91636232a19a49400000000000000000000000000000000000000000000000331da3a1f411477f400000000000000000000000000000000000000000004ce70e9184e861f8d5a34",
          "blockHash": "0x4810c127871f2ad6a73cde496448cf7cdb936d05a125c4606bd8bf8cb0c0c4d1",
          "blockNumber": "0x51d2590",
          "blockTimestamp": "0x69e67b4c",
          "transactionHash": "0x22a7b95ef04af75efc01fec9c28f7ce306b34695202b480035af44efd9ada8df",
          "transactionIndex": "0xb0",
          "logIndex": "0x9ac",
          "removed": false
        }
      ],
      "logsBloom": "0x00000000000001008000000000000000000000000000000000000000000000000000000000000000000000000000000000208000000000000000000000000000000000000000000000000000000000800020000000000000000100000000000040000000020000000000000000000800000000000000000080000000000000000000000040000000020000000400000000000000010000000000000000010000200000000000000000000000000000000000000000000000000000000000004000000000000000000001000000000000000000400000000000100000000020000800000000000000000000000000000000000000000000000000000000100000",
      "type": "0x0",
      "transactionHash": "0x22a7b95ef04af75efc01fec9c28f7ce306b34695202b480035af44efd9ada8df",
      "transactionIndex": "0xb0",
      "blockHash": "0x4810c127871f2ad6a73cde496448cf7cdb936d05a125c4606bd8bf8cb0c0c4d1",
      "blockNumber": "0x51d2590",
      "gasUsed": "0x5fbe",
      "effectiveGasPrice": "0x1cc528fa1f",
      "from": "0xc899ece085ffb1382c85b0f2159f100c09d5eac0",
      "to": "0x180a4d91daead13cabe2cc60985a8808eab82ff1",
      "contractAddress": null
    }
  ],
  "libraries": [],
  "pending": [],
  "returns": {},
  "timestamp": 1776712523676,
  "chain": 137,
  "commit": null
}