{
  "transactions": [
    {
      "hash": "0x653e474da31ed3156661c47854614836d44f69d84b39a4b1fa90cd75db5194d5",
      "transactionType": "CREATE",
      "contractName": "KommitBridge",
      "contractAddress": "0x7ea30ea8a14041380e04d4678b9a7e2173acd528",
      "function": null,
      "arguments": [
        "0x5833ABF0Ecfe61e85682F3720BA4d636084E0EC0",
        "0xeaeF8DC4872a73815aEA74a31FF7C83fdAA347d4",
        "0xFCb7d33F7D00040767FaAcA707F57c4E0Bd5db19"
      ],
      "transaction": {
        "from": "0xc899ece085ffb1382c85b0f2159f100c09d5eac0",
        "gas": "0x288e79",
        "value": "0x0",
        "input": "0x60a03461015357601f61220138819003918201601f19168301916001600160401b0383118484101761015757808492606094604052833981010312610153576100478161016b565b9061006060406100596020840161016b565b920161016b565b60017f9b779b17422d0df92223018b32b4d1fa46e071723d6817e2486d003becc55f00819055678ac7230489e800006003556801158e460913d00000600455611388600555610e10600681905560078190556008556001600160a01b0393841660805280549284166001600160a01b0319938416179055600280549190931691161790556100ed3361017f565b50604051611fd8908161020982396080518181816108f9015281816109510152818161099301528181610b100152818161117e015281816115700152818161173a01528181611af501528181611b4d01528181611b8f01528181611f000152611f570152f35b5f80fd5b634e487b7160e01b5f52604160045260245ffd5b51906001600160a01b038216820361015357565b6001600160a01b0381165f9081525f5160206121e15f395f51905f52602052604090205460ff16610203576001600160a01b03165f8181525f5160206121e15f395f51905f5260205260408120805460ff191660011790553391907f2f8788117e7eff1d82e926ec794901d17c78024a50270940304540a733656f0d8180a4600190565b505f9056fe6080806040526004361015610012575f80fd5b5f3560e01c90816301daf26b146117f05750806301ffc9a71461179a57806302b2f7c7146115ba57806305261aea1461149757806307d212af1461146f57806307e2cea5146114355780630db41f31146113de5780630fe8baf014611395578063100d0b501461137857806316efd941146113505780631b9f977d14611284578063248a9ca3146112525780632f2ff15d1461121557806330d3f24e14610eaf578063322e720014610e9257806334fd3d9414610e7557806336568abe14610e3157806338177f9114610da35780634c6245d914610d74578063530adbb414610d3a5780636048574214610d1d57806361b8ce8c14610d1d57806365f4bce614610cbc5780636b7b99e314610c9f5780638058f94f14610c5d57806380be1dfd14610c0457806382beee8914610bc1578063861a141214610ba4578063863d22c714610b8757806391d1485414610b3f57806398afd29414610afb578063a201bbdd14610ade578063a217fddf14610ac4578063a28f93e414610a80578063a344b3b9146109e1578063ab28d378146107b1578063becdd02b14610754578063ca41fa1a14610713578063cbb8ee59146106d0578063d1325689146104b7578063d547741f14610473578063da73bf9e1461025b578063f006fa3f1461023e5763f898cfaf14610200575f80fd5b3461023a575f36600319011261023a5760206040517f78bd403eca4bbd381f39ec47327e7219030f5791dc6a6e904200561369f54e5e8152f35b5f80fd5b3461023a575f36600319011261023a576020600554604051908152f35b3461023a57604036600319011261023a576024356004356001600160401b03821161023a573660238301121561023a578160040135916001600160401b03831161023a57366024848301011161023a576102b3611ce8565b815f52600960205260ff60405f20541661046457815f52600960205260405f20600160ff19825416179055815f52600a60205260405f20926102f5845461196e565b601f811161041f575b505f93601f82116001146103905791816024936060937f0757192c6e2da4ffdabd8f670be21880530f41341746c2d618612b87ef7a9d0d96975f91610383575b508260011b905f198460031b1c19161790555b806040519485936040855282604086015201848401375f828201840152336020830152601f01601f19168101030190a2005b869150840101358861033e565b601f198216815f5260205f20905f5b81811061040457509183917f0757192c6e2da4ffdabd8f670be21880530f41341746c2d618612b87ef7a9d0d969760609560249795106103e9575b5050600182811b019055610351565b84018601355f19600385901b60f8161c1916905587806103da565b8588016024013583556020978801976001909301920161039f565b845f5260205f20601f830160051c8101916020841061045a575b601f0160051c01905b81811061044f57506102fe565b5f8155600101610442565b9091508190610439565b639e70cad760e01b5f5260045ffd5b3461023a57604036600319011261023a576104b560043561049261190f565b906104b06104ab825f525f602052600160405f20015490565b611d37565b611df7565b005b3461023a57606036600319011261023a576004356024356044356104d9611bc6565b60015460405163186954b760e21b815290602090829060049082906001600160a01b03165afa9081156106c5575f91610696575b50610687575f838152600b6020526040902060058101549092906001600160a01b031615610678576009830192835460ff8160401c16600681101561066457600203610655576001600160401b031642116106465760036040516020810190848252856040820152604081526105846060826118c4565b51902091015403610637576106217f73d83c45d573c504a260c81592ed3bc9e3976a8272a3860c8408cc9de7d7c8ba936803000000000000000060ff60401b198254161781556001600160401b036105de60085442611953565b16906001600160401b0382166001600160401b0319825416179055604051938493849160409194936001600160401b039160608501968552602085015216910152565b0390a260015f516020611f835f395f51905f5255005b63725cc9e960e01b5f5260045ffd5b634262a75560e11b5f5260045ffd5b6355010dc960e11b5f5260045ffd5b634e487b7160e01b5f52602160045260245ffd5b6352fd23d960e11b5f5260045ffd5b631ea8876960e01b5f5260045ffd5b6106b8915060203d6020116106be575b6106b081836118c4565b81019061193b565b8461050d565b503d6106a6565b6040513d5f823e3d90fd5b3461023a57602036600319011261023a576106e9611925565b6106f1611ce8565b600280546001600160a01b0319166001600160a01b0392909216919091179055005b3461023a57604036600319011261023a5760206040518181019060043582526024356040820152604081526107496060826118c4565b519020604051908152f35b3461023a57602036600319011261023a57600435610770611ce8565b612710811161077e57600555005b60405162461bcd60e51b815260206004820152600b60248201526a496e76616c69642062707360a81b6044820152606490fd5b3461023a57602036600319011261023a576004356107cd611bc6565b5f818152600b6020526040902060058101546001600160a01b031615610678576009015460ff8160401c16600681101561066457600203610655576001600160401b03164211156109d257805f52600b60205260405f20600781018054906005548083029083820414831517156109be57612710900491828103938185116109be577fc5b1309c615e94fe5a81aeda103be003f4b000ea6e54ef62dc4f4e0107e903439460609460049360098401600160421b60ff60401b19825416179055610897600e54611960565b600e5560088401548061097b575b5081610938575b141580610924575b6108e3575b5001549054604051915f835260208301526040820152a260015f516020611f835f395f51905f5255005b60025461091e91906001600160a01b03908116907f000000000000000000000000000000000000000000000000000000000000000016611c90565b866108b9565b506002546001600160a01b031615156108b4565b60068401546109769083906001600160a01b03908116907f000000000000000000000000000000000000000000000000000000000000000016611c90565b6108ac565b60068501546109b891906001600160a01b03908116907f000000000000000000000000000000000000000000000000000000000000000016611c90565b896108a5565b634e487b7160e01b5f52601160045260245ffd5b6360d997e160e01b5f5260045ffd5b3461023a576109ef366118ae565b335f9081527fa629f6981c2f6895a67dc766e8e03ff72d04a413d0d8773a3ca56e9e474032c1602052604090205460ff1615610a4957610a3691610a31611bc6565b6119db565b60015f516020611f835f395f51905f5255005b63e2517d3f60e01b5f52336004527f68e79a7bf1e0bc45d0a330c573bc367f9cf464fd326078812f301165fbda4ef160245260445ffd5b3461023a575f36600319011261023a57610ac0604051610aa16040826118c4565b600681526512d3d353525560d21b6020820152604051918291826118e5565b0390f35b3461023a575f36600319011261023a5760206040515f8152f35b3461023a575f36600319011261023a576020600e54604051908152f35b3461023a575f36600319011261023a576040517f00000000000000000000000000000000000000000000000000000000000000006001600160a01b03168152602090f35b3461023a57604036600319011261023a57610b5861190f565b6004355f525f60205260405f209060018060a01b03165f52602052602060ff60405f2054166040519015158152f35b3461023a575f36600319011261023a576020600754604051908152f35b3461023a575f36600319011261023a576020600654604051908152f35b3461023a57602036600319011261023a57610bda611925565b610be2611ce8565b600180546001600160a01b0319166001600160a01b0392909216919091179055005b3461023a57610c12366118ae565b90610c1b611ce8565b80158015610c55575b610c4657808210610c3757600355600455005b63131e8f6b60e21b5f5260045ffd5b63489b3ef560e11b5f5260045ffd5b508115610c24565b3461023a57602036600319011261023a57600435610c79611ce8565b603c81101580610c92575b610c8d906119a6565b600855005b5062093a80811115610c84565b3461023a575f36600319011261023a576020600454604051908152f35b3461023a57610cca366118ae565b90610cd3611ce8565b603c81101580610d10575b610ce7906119a6565b603c82101580610d03575b610cfb906119a6565b600655600755005b5062093a80821115610cf2565b5062093a80811115610cde565b3461023a575f36600319011261023a576020600c54604051908152f35b3461023a575f36600319011261023a5760206040517fe752add323323eb13e36c71ee508dfd16d74e9e4c4fd78786ba97989e5e138188152f35b3461023a57602036600319011261023a576004355f526009602052602060ff60405f2054166040519015158152f35b3461023a57602036600319011261023a57600435610dbf611bc6565b5f818152600b6020526040902060058101546001600160a01b031615610678576009015460ff8160401c16600681101561066457600303610e22576001600160401b0316421115610e1357610a3690611e77565b6341c8a41560e11b5f5260045ffd5b63c0dd75f960e01b5f5260045ffd5b3461023a57604036600319011261023a57610e4a61190f565b336001600160a01b03821603610e66576104b590600435611df7565b63334bd91960e11b5f5260045ffd5b3461023a575f36600319011261023a576020600854604051908152f35b3461023a575f36600319011261023a576020600d54604051908152f35b3461023a57608036600319011261023a57335f9081527f0788bcaf169ffb07aecfcfb22c19258802d1a1dd92b99fd4f0136447657e632a602052604090205460643590602435906004359060ff16156111de57610f0a611bc6565b60015460405163186954b760e21b815290602090829060049082906001600160a01b03165afa9081156106c5575f916111bf575b5061068757805f52600960205260ff60405f205416156111b0576003549182611176575b610f6d600c54611960565b9283600c556001600160401b03610f8660065442611953565b166040516101608101908082106001600160401b03831117611162578691604052426001600160401b0316815260208101938685526040820190868252606083016044358152608084018b815260a085019033825260c08601925f845260e087019485526101008701955f875261012088019a8a8c526101408901995f8b525f52600b60205260405f2098516001600160401b03166001600160401b03166001600160401b03198a5416178955516001890155516002880155516003870155516004860155600160a01b600190039051166005850190600160a01b60019003166bffffffffffffffffffffffff60a01b825416179055600160a01b600190039051166006840190600160a01b60019003166bffffffffffffffffffffffff60a01b82541617905551600783015551600882015560090192516001600160401b03166001600160401b03166001600160401b03198454161783555190600682101561066457825460ff60401b1916604092831b60ff60401b161790925580519283526020808401969096526001600160401b0390911690820152339083907f53edcedae77b79710d366a5c4a81c4215ae4dc22a471cfb869197ffad8d173f690606090a460015f516020611f835f395f51905f5255604051908152f35b634e487b7160e01b5f52604160045260245ffd5b6111ab8330337f00000000000000000000000000000000000000000000000000000000000000006001600160a01b0316611bfe565b610f62565b63ecead6c160e01b5f5260045ffd5b6111d8915060203d6020116106be576106b081836118c4565b84610f3e565b63e2517d3f60e01b5f52336004527f78bd403eca4bbd381f39ec47327e7219030f5791dc6a6e904200561369f54e5e60245260445ffd5b3461023a57604036600319011261023a576104b560043561123461190f565b9061124d6104ab825f525f602052600160405f20015490565b611d6f565b3461023a57602036600319011261023a57602061127c6004355f525f602052600160405f20015490565b604051908152f35b3461023a57602036600319011261023a576004355f52600a60205260405f20604051905f908054906112b58261196e565b808552916001811690811561132957506001146112e9575b610ac0846112dd818603826118c4565b604051918291826118e5565b5f90815260208120939250905b80821061130f575090915081016020016112dd826112cd565b9192600181602092548385880101520191019092916112f6565b60ff191660208087019190915292151560051b850190920192506112dd91508390506112cd565b3461023a575f36600319011261023a576001546040516001600160a01b039091168152602090f35b3461023a575f36600319011261023a576020600354604051908152f35b3461023a575f36600319011261023a57610ac06040516113b66040826118c4565b600f81526e414e4f2d594f4f46492d414759454960881b6020820152604051918291826118e5565b3461023a575f36600319011261023a57610ac06040516113ff6040826118c4565b601881527f565041592d47454e455349532d4b4f4d4d49542d76312e3100000000000000006020820152604051918291826118e5565b3461023a575f36600319011261023a5760206040517f68e79a7bf1e0bc45d0a330c573bc367f9cf464fd326078812f301165fbda4ef18152f35b3461023a575f36600319011261023a576002546040516001600160a01b039091168152602090f35b3461023a57602036600319011261023a576004356114b3611bc6565b5f818152600b602052604090206005810180549091906001600160a01b031615610678576009810190815460ff8160401c166006811015610664576115ab576001600160401b031642111561159c57815460ff60401b19166801000000000000000017909155600701548061155b575b827fa7b84a0dd709a47f6b1e18842d461d310d198d69346533fc65ea14dcd075a8015f80a260015f516020611f835f395f51905f5255005b905461159591906001600160a01b03908116907f000000000000000000000000000000000000000000000000000000000000000016611c90565b8180611523565b6323a3a0c560e21b5f5260045ffd5b6302bc3a8760e51b5f5260045ffd5b3461023a576115c8366118ae565b6115d0611bc6565b60015460405163186954b760e21b815290602090829060049082906001600160a01b03165afa9081156106c5575f9161177b575b50610687575f828152600b6020526040902060058101549091906001600160a01b031615610678576009820190815460ff8160401c1660068110156106645761176c576001600160401b0316421161159c5760086020927f108113901d36d7e3b863eedfa490958bb1a7db0b6c2c2cb90d810bee940749329460045492839182611732575b6006810180546001600160a01b031916331790550155805460ff60401b1916680200000000000000001781556007546001600160401b039081906116cd9042611953565b16166001600160401b0319825416179055604051908152847f655b4df9ab0c67983b052c4e19373b881934e89c12956d3102772f175669254d843393a3604051908152a261171c600d54611960565b600d5560015f516020611f835f395f51905f5255005b6117678330337f00000000000000000000000000000000000000000000000000000000000000006001600160a01b0316611bfe565b611689565b63b85eafc560e01b5f5260045ffd5b611794915060203d6020116106be576106b081836118c4565b83611604565b3461023a57602036600319011261023a5760043563ffffffff60e01b811680910361023a57602090637965db0b60e01b81149081156117df575b506040519015158152f35b6301ffc9a760e01b149050826117d4565b3461023a57602036600319011261023a576004355f52600b60205260405f20906001600160401b03808354169260018101549060028101546003820154600483015460018060a01b036005850154169060018060a01b0360068601541692600786015494600960088801549701549760ff8960401c169b8b5260208b015260408a01526060890152608088015260a087015260c086015260e08501526101008401521661012082015260068210156106645761016091610140820152f35b604090600319011261023a576004359060243590565b90601f801991011681019081106001600160401b0382111761116257604052565b602060409281835280519182918282860152018484015e5f828201840152601f01601f1916010190565b602435906001600160a01b038216820361023a57565b600435906001600160a01b038216820361023a57565b9081602091031261023a5751801515810361023a5790565b919082018092116109be57565b5f1981146109be5760010190565b90600182811c9216801561199c575b602083101461198857565b634e487b7160e01b5f52602260045260245ffd5b91607f169161197d565b156119ad57565b60405162461bcd60e51b81526020600482015260066024820152650d8c1ccb4dd960d21b6044820152606490fd5b5f818152600b6020526040902060058101549192916001600160a01b0316156106785760ff600982015460401c16600681101561066457600303610e2257600401548114611bba57815f52600b60205260405f209060078201908154916005548084029084820414841517156109be57612710900492838103948186116109be577fc5b1309c615e94fe5a81aeda103be003f4b000ea6e54ef62dc4f4e0107e903439560609560049360098401600160421b60ff60401b19825416179055611aa4600e54611960565b600e55600884015480611b77575b5081611b34575b141580611b20575b611adf575b50015490549060405192835260208301526040820152a2565b600254611b1a91906001600160a01b03908116907f000000000000000000000000000000000000000000000000000000000000000016611c90565b5f611ac6565b506002546001600160a01b03161515611ac1565b6006840154611b729083906001600160a01b03908116907f000000000000000000000000000000000000000000000000000000000000000016611c90565b611ab9565b6006850154611bb491906001600160a01b03908116907f000000000000000000000000000000000000000000000000000000000000000016611c90565b5f611ab2565b50611bc490611e77565b565b60025f516020611f835f395f51905f525414611bef5760025f516020611f835f395f51905f5255565b633ee5aeb560e01b5f5260045ffd5b6040516323b872dd60e01b5f9081526001600160a01b039384166004529290931660245260449390935260209060648180865af19060015f5114821615611c6f575b6040525f60605215611c4f5750565b635274afe760e01b5f9081526001600160a01b0391909116600452602490fd5b906001811516611c8757823b15153d15161690611c40565b503d5f823e3d90fd5b916040519163a9059cbb60e01b5f5260018060a01b031660045260245260205f60448180865af19060015f5114821615611cd0575b60405215611c4f5750565b906001811516611c8757823b15153d15161690611cc5565b335f9081527fad3228b676f7d3cd4284a5443f17f1962b36e491b30a40b2405849e597ba5fb5602052604090205460ff1615611d2057565b63e2517d3f60e01b5f52336004525f60245260445ffd5b5f8181526020818152604080832033845290915290205460ff1615611d595750565b63e2517d3f60e01b5f523360045260245260445ffd5b5f818152602081815260408083206001600160a01b038616845290915290205460ff16611df1575f818152602081815260408083206001600160a01b0395909516808452949091528120805460ff19166001179055339291907f2f8788117e7eff1d82e926ec794901d17c78024a50270940304540a733656f0d9080a4600190565b50505f90565b5f818152602081815260408083206001600160a01b038616845290915290205460ff1615611df1575f818152602081815260408083206001600160a01b0395909516808452949091528120805460ff19169055339291907ff6391f5c32d9c69d2a47ea670b442974b53935d1edc7fd64eb21e047a839171b9080a4600190565b805f52600b6020527f6a81cdec9963200c9d4705fa9cd46bbef522ceb468f2d861343048f8975201fb6020600860405f20600981016805000000000000000060ff60401b19825416179055600781015480611f3f575b5001805480151580611f2b575b611eea575b5054604051908152a2565b600254611f2591906001600160a01b03908116907f000000000000000000000000000000000000000000000000000000000000000016611c90565b5f611edf565b506002546001600160a01b03161515611eda565b6005820154611f7c91906001600160a01b03908116907f000000000000000000000000000000000000000000000000000000000000000016611c90565b5f611ecd56fe9b779b17422d0df92223018b32b4d1fa46e071723d6817e2486d003becc55f00a2646970667358221220c17bae1e79ea60aa72990b570eb896ed2ea59315e4ecfcd2d6be09418f1693e164736f6c634300081c0033ad3228b676f7d3cd4284a5443f17f1962b36e491b30a40b2405849e597ba5fb50000000000000000000000005833abf0ecfe61e85682f3720ba4d636084e0ec0000000000000000000000000eaef8dc4872a73815aea74a31ff7c83fdaa347d4000000000000000000000000fcb7d33f7d00040767faaca707f57c4e0bd5db19",
        "nonce": "0x46",
        "chainId": "0x89"
      },
      "additionalContracts": [],
      "isFixedGasLimit": false
    },
    {
      "hash": "0x12ff0e30fe4e45bf9bd3132d8bf8b40821df16b2504287f9f744f3ab4ee6fcc7",
      "transactionType": "CALL",
      "contractName": "KommitBridge",
      "contractAddress": "0x7ea30ea8a14041380e04d4678b9a7e2173acd528",
      "function": "grantRole(bytes32,address)",
      "arguments": [
        "0x78bd403eca4bbd381f39ec47327e7219030f5791dc6a6e904200561369f54e5e",
        "0x13C682Ad10797415eDe7B85C2b9a2Ad539B18e92"
      ],
      "transaction": {
        "from": "0xc899ece085ffb1382c85b0f2159f100c09d5eac0",
        "to": "0x7ea30ea8a14041380e04d4678b9a7e2173acd528",
        "gas": "0x1256d",
        "value": "0x0",
        "input": "0x2f2ff15d78bd403eca4bbd381f39ec47327e7219030f5791dc6a6e904200561369f54e5e00000000000000000000000013c682ad10797415ede7b85c2b9a2ad539b18e92",
        "nonce": "0x47",
        "chainId": "0x89"
      },
      "additionalContracts": [],
      "isFixedGasLimit": false
    },
    {
      "hash": "0xa61e517a5422490c838389ef385d0bb0e1e2f62917c998d5f99a9c655d869942",
      "transactionType": "CALL",
      "contractName": "KommitBridge",
      "contractAddress": "0x7ea30ea8a14041380e04d4678b9a7e2173acd528",
      "function": "grantRole(bytes32,address)",
      "arguments": [
        "0x68e79a7bf1e0bc45d0a330c573bc367f9cf464fd326078812f301165fbda4ef1",
        "0xA326089D225616970EAA115f4d7cAf38DC564268"
      ],
      "transaction": {
        "from": "0xc899ece085ffb1382c85b0f2159f100c09d5eac0",
        "to": "0x7ea30ea8a14041380e04d4678b9a7e2173acd528",
        "gas": "0x11530",
        "value": "0x0",
        "input": "0x2f2ff15d68e79a7bf1e0bc45d0a330c573bc367f9cf464fd326078812f301165fbda4ef1000000000000000000000000a326089d225616970eaa115f4d7caf38dc564268",
        "nonce": "0x48",
        "chainId": "0x89"
      },
      "additionalContracts": [],
      "isFixedGasLimit": false
    },
    {
      "hash": "0xc66205ade8fcb26b7306dbd13b18accf911aff98548701db290efaa9874be74d",
      "transactionType": "CALL",
      "contractName": "KommitBridge",
      "contractAddress": "0x7ea30ea8a14041380e04d4678b9a7e2173acd528",
      "function": "grantRole(bytes32,address)",
      "arguments": [
        "0x0000000000000000000000000000000000000000000000000000000000000000",
        "0xFc93b70fAa2045e19CEae43d1b645b2137c68A67"
      ],
      "transaction": {
        "from": "0xc899ece085ffb1382c85b0f2159f100c09d5eac0",
        "to": "0x7ea30ea8a14041380e04d4678b9a7e2173acd528",
        "gas": "0x1131e",
        "value": "0x0",
        "input": "0x2f2ff15d0000000000000000000000000000000000000000000000000000000000000000000000000000000000000000fc93b70faa2045e19ceae43d1b645b2137c68a67",
        "nonce": "0x49",
        "chainId": "0x89"
      },
      "additionalContracts": [],
      "isFixedGasLimit": false
    },
    {
      "hash": "0xaccd939709681db85a62e8092a96f78771bc3283f4ee7fa6facce4f905c115d5",
      "transactionType": "CALL",
      "contractName": "KommitBridge",
      "contractAddress": "0x7ea30ea8a14041380e04d4678b9a7e2173acd528",
      "function": "renounceRole(bytes32,address)",
      "arguments": [
        "0x0000000000000000000000000000000000000000000000000000000000000000",
        "0xc899eCe085ffB1382c85B0f2159F100c09D5EAc0"
      ],
      "transaction": {
        "from": "0xc899ece085ffb1382c85b0f2159f100c09d5eac0",
        "to": "0x7ea30ea8a14041380e04d4678b9a7e2173acd528",
        "gas": "0x8d60",
        "value": "0x0",
        "input": "0x36568abe0000000000000000000000000000000000000000000000000000000000000000000000000000000000000000c899ece085ffb1382c85b0f2159f100c09d5eac0",
        "nonce": "0x4a",
        "chainId": "0x89"
      },
      "additionalContracts": [],
      "isFixedGasLimit": false
    }
  ],
  "receipts": [
    {
      "status": "0x1",
      "cumulativeGasUsed": "0x2ae7a60",
      "logs": [
        {
          "address": "0x7ea30ea8a14041380e04d4678b9a7e2173acd528",
          "topics": [
            "0x2f8788117e7eff1d82e926ec794901d17c78024a50270940304540a733656f0d",
            "0x0000000000000000000000000000000000000000000000000000000000000000",
            "0x000000000000000000000000c899ece085ffb1382c85b0f2159f100c09d5eac0",
            "0x000000000000000000000000c899ece085ffb1382c85b0f2159f100c09d5eac0"
          ],
          "data": "0x",
          "blockHash": "0x0d23cd6675422f0dab311cb66c5469f24cd8afd2aec50fc64d971a57c08572d5",
          "blockNumber": "0x51e4547",
          "blockTimestamp": "0x69e8baba",
          "transactionHash": "0xaccd939709681db85a62e8092a96f78771bc3283f4ee7fa6facce4f905c115d5",
          "transactionIndex": "0x85",
          "logIndex": "0x979",
          "removed": false
        },
        {
          "address": "0x0000000000000000000000000000000000001010",
          "topics": [
            "0x4dfe1bbbcf077ddc3e01291eea2d5c70c2b422b415d95645b9adcfd678cb1d63",
            "0x0000000000000000000000000000000000000000000000000000000000001010",
            "0x000000000000000000000000c899ece085ffb1382c85b0f2159f100c09d5eac0",
            "0x0000000000000000000000007ee41d8a25641000661b1ef5e6ae8a00400466b0"
          ],
          "data": "0x00000000000000000000000000000000000000000000000013e28b4128db3bcf000000000000000000000000000000000000000000000001a036dc02fcf8e31000000000000000000000000000000000000000000005929eea6451a79a0dcd6a0000000000000000000000000000000000000000000000018c5450c1d41da74100000000000000000000000000000000000000000005929efe46dce8c2e90939",
          "blockHash": "0x0d23cd6675422f0dab311cb66c5469f24cd8afd2aec50fc64d971a57c08572d5",
          "blockNumber": "0x51e4547",
          "blockTimestamp": "0x69e8baba",
          "transactionHash": "0xaccd939709681db85a62e8092a96f78771bc3283f4ee7fa6facce4f905c115d5",
          "transactionIndex": "0x85",
          "logIndex": "0x97a",
          "removed": false
        }
      ],
      "logsBloom": "0x00000004000000000000000000000000000000000000000000000000000000000000000000000000000000000000000000008000000000000000000000000000000000000000000000040000000000800000000000000000000100000000000000000000020000000000000000000800000000000000000080000000000000000000000000000000020000000400000000000000010000000000000000010000200000000000000000000000000000000000004000000000001000000000004000000000000000000001000000000000000000400000000100100000000020000800000000000000000000000000000000000000040000000000000000100000",
      "type": "0x2",
      "transactionHash": "0xaccd939709681db85a62e8092a96f78771bc3283f4ee7fa6facce4f905c115d5",
      "transactionIndex": "0x85",
      "blockHash": "0x0d23cd6675422f0dab311cb66c5469f24cd8afd2aec50fc64d971a57c08572d5",
      "blockNumber": "0x51e4547",
      "gasUsed": "0x1f3285",
      "effectiveGasPrice": "0xbbf81092c3",
      "from": "0xc899ece085ffb1382c85b0f2159f100c09d5eac0",
      "to": null,
      "contractAddress": "0x7ea30ea8a14041380e04d4678b9a7e2173acd528"
    },
    {
      "status": "0x1",
      "cumulativeGasUsed": "0x2af4303",
      "logs": [
        {
          "address": "0x7ea30ea8a14041380e04d4678b9a7e2173acd528",
          "topics": [
            "0x2f8788117e7eff1d82e926ec794901d17c78024a50270940304540a733656f0d",
            "0x78bd403eca4bbd381f39ec47327e7219030f5791dc6a6e904200561369f54e5e",
            "0x00000000000000000000000013c682ad10797415ede7b85c2b9a2ad539b18e92",
            "0x000000000000000000000000c899ece085ffb1382c85b0f2159f100c09d5eac0"
          ],
          "data": "0x",
          "blockHash": "0x0d23cd6675422f0dab311cb66c5469f24cd8afd2aec50fc64d971a57c08572d5",
          "blockNumber": "0x51e4547",
          "blockTimestamp": "0x69e8baba",
          "transactionHash": "0x12ff0e30fe4e45bf9bd3132d8bf8b40821df16b2504287f9f744f3ab4ee6fcc7",
          "transactionIndex": "0x86",
          "logIndex": "0x97b",
          "removed": false
        },
        {
          "address": "0x0000000000000000000000000000000000001010",
          "topics": [
            "0x4dfe1bbbcf077ddc3e01291eea2d5c70c2b422b415d95645b9adcfd678cb1d63",
            "0x0000000000000000000000000000000000000000000000000000000000001010",
            "0x000000000000000000000000c899ece085ffb1382c85b0f2159f100c09d5eac0",
            "0x0000000000000000000000007ee41d8a25641000661b1ef5e6ae8a00400466b0"
          ],
          "data": "0x000000000000000000000000000000000000000000000000007fe25e04fc97a9000000000000000000000000000000000000000000000001894eb9e61a158dc100000000000000000000000000000000000000000005929efe46dce8c2e9093900000000000000000000000000000000000000000000000188ced7881518f61800000000000000000000000000000000000000000005929efec6bf46c7e5a0e2",
          "blockHash": "0x0d23cd6675422f0dab311cb66c5469f24cd8afd2aec50fc64d971a57c08572d5",
          "blockNumber": "0x51e4547",
          "blockTimestamp": "0x69e8baba",
          "transactionHash": "0x12ff0e30fe4e45bf9bd3132d8bf8b40821df16b2504287f9f744f3ab4ee6fcc7",
          "transactionIndex": "0x86",
          "logIndex": "0x97c",
          "removed": false
        }
      ],
      "logsBloom": "0x00000004000000000000000000000000000000000000000000000000000000000000000000000000000000000000000880008000000004000000000000000000000000000000000000040000000000800000000000000000000100000000000000000000000000000000000000000000000000000000000080000001000000000000000000000000020000000400000000000000010000000000000000010000200000000000000000000000000000000000004000000000001000000000004000000010000000000001000000000000000000400000000100100000000000000800000000000000000000000000000000000000040000000200000000100000",
      "type": "0x2",
      "transactionHash": "0x12ff0e30fe4e45bf9bd3132d8bf8b40821df16b2504287f9f744f3ab4ee6fcc7",
      "transactionIndex": "0x86",
      "blockHash": "0x0d23cd6675422f0dab311cb66c5469f24cd8afd2aec50fc64d971a57c08572d5",
      "blockNumber": "0x51e4547",
      "gasUsed": "0xc8a3",
      "effectiveGasPrice": "0xbbf81092c3",
      "from": "0xc899ece085ffb1382c85b0f2159f100c09d5eac0",
      "to": "0x7ea30ea8a14041380e04d4678b9a7e2173acd528",
      "contractAddress": null
    },
    {
      "status": "0x1",
      "cumulativeGasUsed": "0x3860790",
      "logs": [
        {
          "address": "0x7ea30ea8a14041380e04d4678b9a7e2173acd528",
          "topics": [
            "0x2f8788117e7eff1d82e926ec794901d17c78024a50270940304540a733656f0d",
            "0x68e79a7bf1e0bc45d0a330c573bc367f9cf464fd326078812f301165fbda4ef1",
            "0x000000000000000000000000a326089d225616970eaa115f4d7caf38dc564268",
            "0x000000000000000000000000c899ece085ffb1382c85b0f2159f100c09d5eac0"
          ],
          "data": "0x",
          "blockHash": "0x3c011afdbad7d8bc5ac91fe23c7320ccecf140f7f8a822ec72270915a25d447f",
          "blockNumber": "0x51e4548",
          "blockTimestamp": "0x69e8babc",
          "transactionHash": "0xa61e517a5422490c838389ef385d0bb0e1e2f62917c998d5f99a9c655d869942",
          "transactionIndex": "0xab",
          "logIndex": "0xd0d",
          "removed": false
        },
        {
          "address": "0x0000000000000000000000000000000000001010",
          "topics": [
            "0x4dfe1bbbcf077ddc3e01291eea2d5c70c2b422b415d95645b9adcfd678cb1d63",
            "0x0000000000000000000000000000000000000000000000000000000000001010",
            "0x000000000000000000000000c899ece085ffb1382c85b0f2159f100c09d5eac0",
            "0x0000000000000000000000007ee41d8a25641000661b1ef5e6ae8a00400466b0"
          ],
          "data": "0x000000000000000000000000000000000000000000000000007fea04167b6ecd00000000000000000000000000000000000000000000000188bb686a34dfc3980000000000000000000000000000000000000000000592a35a9dc3b1a0563e7d000000000000000000000000000000000000000000000001883b7e661e6454cb0000000000000000000000000000000000000000000592a35b1dadb5b6d1ad4a",
          "blockHash": "0x3c011afdbad7d8bc5ac91fe23c7320ccecf140f7f8a822ec72270915a25d447f",
          "blockNumber": "0x51e4548",
          "blockTimestamp": "0x69e8babc",
          "transactionHash": "0xa61e517a5422490c838389ef385d0bb0e1e2f62917c998d5f99a9c655d869942",
          "transactionIndex": "0xab",
          "logIndex": "0xd0e",
          "removed": false
        }
      ],
      "logsBloom": "0x00000004000000000000000000000000000000000000000000000000000000000000000000000000000000000000000000008000000000000000000000000000000000000000000000040000000000800040000000000000000100000000000000000000000000000000000000000000000000000000000080000000000000000000000000000000020000000400000000000000010002000000000002010000200000000000000000000000000000000000004000000000001000000000004000000000000000000001000000000000000000400000000100140000000000000800000000000000000000000000400000000000040000000000001000100000",
      "type": "0x2",
      "transactionHash": "0xa61e517a5422490c838389ef385d0bb0e1e2f62917c998d5f99a9c655d869942",
      "transactionIndex": "0xab",
      "blockHash": "0x3c011afdbad7d8bc5ac91fe23c7320ccecf140f7f8a822ec72270915a25d447f",
      "blockNumber": "0x51e4548",
      "gasUsed": "0xc8af",
      "effectiveGasPrice": "0xbbd9f514e0",
      "from": "0xc899ece085ffb1382c85b0f2159f100c09d5eac0",
      "to": "0x7ea30ea8a14041380e04d4678b9a7e2173acd528",
      "contractAddress": null
    },
    {
      "status": "0x1",
      "cumulativeGasUsed": "0x386cebf",
      "logs": [
        {
          "address": "0x7ea30ea8a14041380e04d4678b9a7e2173acd528",
          "topics": [
            "0x2f8788117e7eff1d82e926ec794901d17c78024a50270940304540a733656f0d",
            "0x0000000000000000000000000000000000000000000000000000000000000000",
            "0x000000000000000000000000fc93b70faa2045e19ceae43d1b645b2137c68a67",
            "0x000000000000000000000000c899ece085ffb1382c85b0f2159f100c09d5eac0"
          ],
          "data": "0x",
          "blockHash": "0x3c011afdbad7d8bc5ac91fe23c7320ccecf140f7f8a822ec72270915a25d447f",
          "blockNumber": "0x51e4548",
          "blockTimestamp": "0x69e8babc",
          "transactionHash": "0x653e474da31ed3156661c47854614836d44f69d84b39a4b1fa90cd75db5194d5",
          "transactionIndex": "0xac",
          "logIndex": "0xd0f",
          "removed": false
        },
        {
          "address": "0x0000000000000000000000000000000000001010",
          "topics": [
            "0x4dfe1bbbcf077ddc3e01291eea2d5c70c2b422b415d95645b9adcfd678cb1d63",
            "0x0000000000000000000000000000000000000000000000000000000000001010",
            "0x000000000000000000000000c899ece085ffb1382c85b0f2159f100c09d5eac0",
            "0x0000000000000000000000007ee41d8a25641000661b1ef5e6ae8a00400466b0"
          ],
          "data": "0x000000000000000000000000000000000000000000000000007ef541e6a08a4d000000000000000000000000000000000000000000000001882825b8be077e780000000000000000000000000000000000000000000592a35b1dadb5b6d1ad4a00000000000000000000000000000000000000000000000187a93076d766f42b0000000000000000000000000000000000000000000592a35b9ca2f79d723797",
          "blockHash": "0x3c011afdbad7d8bc5ac91fe23c7320ccecf140f7f8a822ec72270915a25d447f",
          "blockNumber": "0x51e4548",
          "blockTimestamp": "0x69e8babc",
          "transactionHash": "0x653e474da31ed3156661c47854614836d44f69d84b39a4b1fa90cd75db5194d5",
          "transactionIndex": "0xac",
          "logIndex": "0xd10",
          "removed": false
        }
      ],
      "logsBloom": "0x00000004000000000000000000000000000000000000000000000000000000000000000000000000000000000000000000008000000000000000000000000000000000000000000000040000000000800000000000000000000100000000000000000000020004000000000000000c00000000000000000080000000000000000000000000000000020000000400000000000000010000000000000000010000200000000000000000002000000000000000004000000000001000000000004000000000000000000001000000000000000000400000000100100000000020000800000000000000000000000000000000000000040000000000000000100000",
      "type": "0x2",
      "transactionHash": "0x653e474da31ed3156661c47854614836d44f69d84b39a4b1fa90cd75db5194d5",
      "transactionIndex": "0xac",
      "blockHash": "0x3c011afdbad7d8bc5ac91fe23c7320ccecf140f7f8a822ec72270915a25d447f",
      "blockNumber": "0x51e4548",
      "gasUsed": "0xc72f",
      "effectiveGasPrice": "0xbbd9f514e0",
      "from": "0xc899ece085ffb1382c85b0f2159f100c09d5eac0",
      "to": "0x7ea30ea8a14041380e04d4678b9a7e2173acd528",
      "contractAddress": null
    },
    {
      "status": "0x1",
      "cumulativeGasUsed": "0x3872f6a",
      "logs": [
        {
          "address": "0x7ea30ea8a14041380e04d4678b9a7e2173acd528",
          "topics": [
            "0xf6391f5c32d9c69d2a47ea670b442974b53935d1edc7fd64eb21e047a839171b",
            "0x0000000000000000000000000000000000000000000000000000000000000000",
            "0x000000000000000000000000c899ece085ffb1382c85b0f2159f100c09d5eac0",
            "0x000000000000000000000000c899ece085ffb1382c85b0f2159f100c09d5eac0"
          ],
          "data": "0x",
          "blockHash": "0x3c011afdbad7d8bc5ac91fe23c7320ccecf140f7f8a822ec72270915a25d447f",
          "blockNumber": "0x51e4548",
          "blockTimestamp": "0x69e8babc",
          "transactionHash": "0xc66205ade8fcb26b7306dbd13b18accf911aff98548701db290efaa9874be74d",
          "transactionIndex": "0xad",
          "logIndex": "0xd11",
          "removed": false
        },
        {
          "address": "0x0000000000000000000000000000000000001010",
          "topics": [
            "0x4dfe1bbbcf077ddc3e01291eea2d5c70c2b422b415d95645b9adcfd678cb1d63",
            "0x0000000000000000000000000000000000000000000000000000000000001010",
            "0x000000000000000000000000c899ece085ffb1382c85b0f2159f100c09d5eac0",
            "0x0000000000000000000000007ee41d8a25641000661b1ef5e6ae8a00400466b0"
          ],
          "data": "0x000000000000000000000000000000000000000000000000003d9d8a700899c10000000000000000000000000000000000000000000000018795fcce36ce89580000000000000000000000000000000000000000000592a35b9ca2f79d72379700000000000000000000000000000000000000000000000187585f43c6c5ef970000000000000000000000000000000000000000000592a35bda40820d7ad158",
          "blockHash": "0x3c011afdbad7d8bc5ac91fe23c7320ccecf140f7f8a822ec72270915a25d447f",
          "blockNumber": "0x51e4548",
          "blockTimestamp": "0x69e8babc",
          "transactionHash": "0xc66205ade8fcb26b7306dbd13b18accf911aff98548701db290efaa9874be74d",
          "transactionIndex": "0xad",
          "logIndex": "0xd12",
          "removed": false
        }
      ],
      "logsBloom": "0x00000000000000000000000000000000000000000000000000000000000000000000000000000000000000000000000000208000000000000000000000000000000000000000000000040000000000800000000000000000000100000000000040000000020000000000000000000800000000000000000080000000000000000000000040000000020000000400000000000000010000000000000000010000200000000000000000000000000000000000004000000000000000000000004000000000000000000001000000000000000000400000000000100000000020000800000000000000000000000000000000000000040000000000000000100000",
      "type": "0x2",
      "transactionHash": "0xc66205ade8fcb26b7306dbd13b18accf911aff98548701db290efaa9874be74d",
      "transactionIndex": "0xad",
      "blockHash": "0x3c011afdbad7d8bc5ac91fe23c7320ccecf140f7f8a822ec72270915a25d447f",
      "blockNumber": "0x51e4548",
      "gasUsed": "0x60ab",
      "effectiveGasPrice": "0xbbd9f514e0",
      "from": "0xc899ece085ffb1382c85b0f2159f100c09d5eac0",
      "to": "0x7ea30ea8a14041380e04d4678b9a7e2173acd528",
      "contractAddress": null
    }
  ],
  "libraries": [],
  "pending": [],
  "returns": {},
  "timestamp": 1776859835985,
  "chain": 137,
  "commit": null
}